{"contracts/IDOPool.sol":{"IDOPool":{"abi":[{"inputs":[{"internalType":"address","name":"_idoToken","type":"address"},{"internalType":"address","name":"_paymentToken","type":"address"},{"internalType":"uint256","name":"_tokenPrice","type":"uint256"},{"internalType":"uint256","name":"_softCap","type":"uint256"},{"internalType":"uint256","name":"_hardCap","type":"uint256"}],"stateMutability":"nonpayable","type":"constructor"},{"anonymous":false,"inputs":[],"name":"GlobalRefundEnabled","type":"event"},{"anonymous":false,"inputs":[],"name":"IDOEnded","type":"event"},{"anonymous":false,"inputs":[{"indexed":false,"internalType":"uint256","name":"startTime","type":"uint256"},{"indexed":false,"internalType":"uint256","name":"endTime","type":"uint256"}],"name":"IDOStarted","type":"event"},{"anonymous":false,"inputs":[{"indexed":true,"internalType":"address","name":"previousOwner","type":"address"},{"indexed":true,"internalType":"address","name":"newOwner","type":"address"}],"name":"OwnershipTransferred","type":"event"},{"anonymous":false,"inputs":[{"indexed":true,"internalType":"address","name":"user","type":"address"},{"indexed":false,"internalType":"uint256","name":"amount","type":"uint256"}],"name":"RefundIssued","type":"event"},{"anonymous":false,"inputs":[],"name":"TokensClaimable","type":"event"},{"anonymous":false,"inputs":[{"indexed":true,"internalType":"address","name":"claimer","type":"address"},{"indexed":false,"internalType":"uint256","name":"tokenAmount","type":"uint256"}],"name":"TokensClaimed","type":"event"},{"anonymous":false,"inputs":[{"indexed":true,"internalType":"address","name":"buyer","type":"address"},{"indexed":false,"internalType":"uint256","name":"paymentAmount","type":"uint256"},{"indexed":false,"internalType":"uint256","name":"tokenAmount","type":"uint256"}],"name":"TokensPurchased","type":"event"},{"inputs":[{"internalType":"uint256","name":"amount","type":"uint256"}],"name":"buyTokens","outputs":[],"stateMutability":"nonpayable","type":"function"},{"inputs":[],"name":"claimRefund","outputs":[],"stateMutability":"nonpayable","type":"function"},{"inputs":[],"name":"claimTokens","outputs":[],"stateMutability":"nonpayable","type":"function"},{"inputs":[{"internalType":"address","name":"","type":"address"}],"name":"contributions","outputs":[{"internalType":"uint256","name":"","type":"uint256"}],"stateMutability":"view","type":"function"},{"inputs":[],"name":"enableGlobalRefund","outputs":[],"stateMutability":"nonpayable","type":"function"},{"inputs":[],"name":"enableTokenClaims","outputs":[],"stateMutability":"nonpayable","type":"function"},{"inputs":[],"name":"endIDO","outputs":[],"stateMutability":"nonpayable","type":"function"},{"inputs":[],"name":"endTime","outputs":[{"internalType":"uint256","name":"","type":"uint256"}],"stateMutability":"view","type":"function"},{"inputs":[],"name":"getIDOInfo","outputs":[{"internalType":"uint256","name":"_startTime","type":"uint256"},{"internalType":"uint256","name":"_endTime","type":"uint256"},{"internalType":"uint256","name":"_softCap","type":"uint256"},{"internalType":"uint256","name":"_hardCap","type":"uint256"},{"internalType":"uint256","name":"_totalPaymentCollected","type":"uint256"},{"internalType":"bool","name":"_tokensClaimable","type":"bool"},{"internalType":"bool","name":"_refundsEnabled","type":"bool"}],"stateMutability":"view","type":"function"},{"inputs":[{"internalType":"address","name":"user","type":"address"}],"name":"getUserInfo","outputs":[{"internalType":"uint256","name":"contribution","type":"uint256"},{"internalType":"uint256","name":"tokenAmount","type":"uint256"},{"internalType":"bool","name":"claimed","type":"bool"},{"internalType":"bool","name":"refunded","type":"bool"}],"stateMutability":"view","type":"function"},{"inputs":[],"name":"globalRefundEnabled","outputs":[{"internalType":"bool","name":"","type":"bool"}],"stateMutability":"view","type":"function"},{"inputs":[],"name":"hardCap","outputs":[{"internalType":"uint256","name":"","type":"uint256"}],"stateMutability":"view","type":"function"},{"inputs":[{"internalType":"address","name":"","type":"address"}],"name":"hasClaimed","outputs":[{"internalType":"bool","name":"","type":"bool"}],"stateMutability":"view","type":"function"},{"inputs":[{"internalType":"address","name":"","type":"address"}],"name":"hasRefunded","outputs":[{"internalType":"bool","name":"","type":"bool"}],"stateMutability":"view","type":"function"},{"inputs":[],"name":"idoToken","outputs":[{"internalType":"contract IERC20","name":"","type":"address"}],"stateMutability":"view","type":"function"},{"inputs":[],"name":"owner","outputs":[{"internalType":"address","name":"","type":"address"}],"stateMutability":"view","type":"function"},{"inputs":[],"name":"paymentToken","outputs":[{"internalType":"contract IERC20","name":"","type":"address"}],"stateMutability":"view","type":"function"},{"inputs":[],"name":"refundEndTime","outputs":[{"internalType":"uint256","name":"","type":"uint256"}],"stateMutability":"view","type":"function"},{"inputs":[],"name":"refundsEnabled","outputs":[{"internalType":"bool","name":"","type":"bool"}],"stateMutability":"view","type":"function"},{"inputs":[],"name":"renounceOwnership","outputs":[],"stateMutability":"nonpayable","type":"function"},{"inputs":[{"internalType":"uint256","name":"_refundEndTime","type":"uint256"}],"name":"setRefundWindow","outputs":[],"stateMutability":"nonpayable","type":"function"},{"inputs":[{"internalType":"bool","name":"_refundsEnabled","type":"bool"}],"name":"setRefundsEnabled","outputs":[],"stateMutability":"nonpayable","type":"function"},{"inputs":[],"name":"softCap","outputs":[{"internalType":"uint256","name":"","type":"uint256"}],"stateMutability":"view","type":"function"},{"inputs":[{"internalType":"uint256","name":"_startTime","type":"uint256"},{"internalType":"uint256","name":"_endTime","type":"uint256"}],"name":"startIDO","outputs":[],"stateMutability":"nonpayable","type":"function"},{"inputs":[],"name":"startTime","outputs":[{"internalType":"uint256","name":"","type":"uint256"}],"stateMutability":"view","type":"function"},{"inputs":[],"name":"tokenPrice","outputs":[{"internalType":"uint256","name":"","type":"uint256"}],"stateMutability":"view","type":"function"},{"inputs":[],"name":"tokensClaimable","outputs":[{"internalType":"bool","name":"","type":"bool"}],"stateMutability":"view","type":"function"},{"inputs":[],"name":"totalPaymentCollected","outputs":[{"internalType":"uint256","name":"","type":"uint256"}],"stateMutability":"view","type":"function"},{"inputs":[],"name":"totalTokensSold","outputs":[{"internalType":"uint256","name":"","type":"uint256"}],"stateMutability":"view","type":"function"},{"inputs":[{"internalType":"address","name":"newOwner","type":"address"}],"name":"transferOwnership","outputs":[],"stateMutability":"nonpayable","type":"function"},{"inputs":[],"name":"withdrawCollectedPayments","outputs":[],"stateMutability":"nonpayable","type":"function"},{"inputs":[],"name":"withdrawUnsoldTokens","outputs":[],"stateMutability":"nonpayable","type":"function"}],"evm":{"bytecode":{"linkReferences":{},"object":"60806040523480156200001157600080fd5b5060405162001e9038038062001e9083398101604081905262000034916200046a565b336200004081620003fd565b6200004b81620003fd565b50600180556001600160a01b038516620000ac5760405162461bcd60e51b815260206004820152601960248201527f496e76616c69642049444f20746f6b656e20616464726573730000000000000060448201526064015b60405180910390fd5b6001600160a01b038416620001045760405162461bcd60e51b815260206004820152601d60248201527f496e76616c6964207061796d656e7420746f6b656e20616464726573730000006044820152606401620000a3565b60008311620001615760405162461bcd60e51b815260206004820152602260248201527f546f6b656e207072696365206d7573742062652067726561746572207468616e604482015261020360f41b6064820152608401620000a3565b60008211620001b35760405162461bcd60e51b815260206004820152601f60248201527f536f667420636170206d7573742062652067726561746572207468616e2030006044820152606401620000a3565b81811015620002205760405162461bcd60e51b815260206004820152603260248201527f4861726420636170206d7573742062652067726561746572207468616e206f72604482015271020657175616c20746f20736f6674206361760741b6064820152608401620000a3565b846001600160a01b03166318160ddd6040518163ffffffff1660e01b8152600401602060405180830381865afa9250505080156200027d575060408051601f3d908101601f191682019092526200027a91810190620004bd565b60015b620002e05760405162461bcd60e51b815260206004820152602c60248201527f49444f20746f6b656e20646f6573206e6f7420636f6e666f726d20746f20455260448201526b10cc8c081cdd185b99185c9960a21b6064820152608401620000a3565b50836001600160a01b03166318160ddd6040518163ffffffff1660e01b8152600401602060405180830381865afa9250505080156200033e575060408051601f3d908101601f191682019092526200033b91810190620004bd565b60015b620003a55760405162461bcd60e51b815260206004820152603060248201527f5061796d656e7420746f6b656e20646f6573206e6f7420636f6e666f726d207460448201526f1bc8115490cc8c081cdd185b99185c9960821b6064820152608401620000a3565b50600280546001600160a01b039687166001600160a01b0319918216179091556003805495909616941693909317909355600855600691909155600755600a805461ffff19169055600d805460ff19169055620004d7565b600080546001600160a01b038381166001600160a01b0319831681178455604051919092169283917f8be0079c531659141344cd1fd0a4f28419497f9722a3daafe3b4186f6b6457e09190a35050565b80516001600160a01b03811681146200046557600080fd5b919050565b600080600080600060a086880312156200048357600080fd5b6200048e866200044d565b94506200049e602087016200044d565b6040870151606088015160809098015196999198509695945092505050565b600060208284031215620004d057600080fd5b5051919050565b6119a980620004e76000396000f3fe608060405234801561001057600080fd5b50600436106101f05760003560e01c806373b2e80e1161010f578063b4a30910116100a2578063e72f98e111610071578063e72f98e114610432578063f2fde38b1461043a578063faad0fc11461044d578063fb86a4041461045557600080fd5b8063b4a3091014610407578063b5545a3c1461040f578063c8bdbfb614610417578063d6cd82bc1461041f57600080fd5b80638c5d80dd116100de5780638c5d80dd146103d15780638da5cb5b146103e45780638e1ee99d146103f5578063906a26e0146103fe57600080fd5b806373b2e80e1461039357806373fddd16146103b657806378e97925146103bf5780637ff9b596146103c857600080fd5b80633610724e116101875780636386c1c7116101565780636386c1c71461030657806363b201171461034157806366a4559b1461034a578063715018a61461038b57600080fd5b80633610724e146102be57806342e94c90146102d157806348c54b9d146102f1578063532f1179146102f957600080fd5b80633013ce29116101c35780633013ce291461025c57806330767d09146102875780633197cbb61461029a57806331f684c0146102b157600080fd5b80630302f2ce146101f55780630e294700146101ff5780630e6cac51146102125780632b6b063314610239575b600080fd5b6101fd61045e565b005b6101fd61020d36600461178a565b610517565b600a5461022490610100900460ff1681565b60405190151581526020015b60405180910390f35b6102246102473660046117ac565b60106020526000908152604090205460ff1681565b60035461026f906001600160a01b031681565b6040516001600160a01b039091168152602001610230565b6101fd6102953660046117ea565b610655565b6102a360055481565b604051908152602001610230565b600d546102249060ff1681565b6101fd6102cc366004611807565b610670565b6102a36102df3660046117ac565b600e6020526000908152604090205481565b6101fd6108cb565b600a546102249060ff1681565b6103196103143660046117ac565b610a7a565b6040805194855260208501939093529015159183019190915215156060820152608001610230565b6102a3600b5481565b610352610af6565b6040805197885260208801969096529486019390935260608501919091526080840152151560a0830152151560c082015260e001610230565b6101fd610b49565b6102246103a13660046117ac565b600f6020526000908152604090205460ff1681565b6102a360095481565b6102a360045481565b6102a360085481565b6101fd6103df366004611807565b610b5b565b6000546001600160a01b031661026f565b6102a3600c5481565b6102a360065481565b6101fd610bc5565b6101fd610d44565b6101fd610fef565b60025461026f906001600160a01b031681565b6101fd6110c3565b6101fd6104483660046117ac565b6111fa565b6101fd611270565b6102a360075481565b61046661137c565b600d5460ff16156104dd5760405162461bcd60e51b815260206004820152603660248201527f43616e6e6f7420656e61626c6520676c6f62616c20726566756e6420616674656044820152757220746f6b656e732061726520636c61696d61626c6560501b60648201526084015b60405180910390fd5b600a805461ffff19166101011790556040517ff6d8d1ea391776e47acc6a0589088b8f9032e90b78f6fafe228506ad35e99e0490600090a1565b61051f61137c565b4282101561056f5760405162461bcd60e51b815260206004820181905260248201527f53746172742074696d65206d75737420626520696e207468652066757475726560448201526064016104d4565b8181116105c85760405162461bcd60e51b815260206004820152602160248201527f456e642074696d65206d7573742062652061667465722073746172742074696d6044820152606560f81b60648201526084016104d4565b6004541561060e5760405162461bcd60e51b8152602060048201526013602482015272125113c8185b1c9958591e481cdd185c9d1959606a1b60448201526064016104d4565b6004829055600581905560408051838152602081018390527ff32b942f17dcdc7b72249566bfc2f10364fcd97afab884eaf749198abdf98cfb910160405180910390a15050565b61065d61137c565b600a805460ff1916911515919091179055565b6106786113d6565b6004544210156106c45760405162461bcd60e51b8152602060048201526017602482015276125113c81a185cc81b9bdd081cdd185c9d1959081e595d604a1b60448201526064016104d4565b6005544211156107065760405162461bcd60e51b815260206004820152600d60248201526c125113c81a185cc8195b991959609a1b60448201526064016104d4565b600081116107565760405162461bcd60e51b815260206004820152601d60248201527f416d6f756e74206d7573742062652067726561746572207468616e203000000060448201526064016104d4565b60075481600c546107679190611836565b11156107a85760405162461bcd60e51b815260206004820152601060248201526f0457863656564732068617264206361760841b60448201526064016104d4565b6008546000906107c083670de0b6b3a764000061184f565b6107ca9190611866565b9050600081116108155760405162461bcd60e51b8152602060048201526016602482015275151bdad95b88185b5bdd5b9d081d1bdbc81cdb585b1b60521b60448201526064016104d4565b60035461082d906001600160a01b031633308561142f565b336000908152600e60205260408120805484929061084c908490611836565b9250508190555081600c60008282546108659190611836565b9250508190555080600b600082825461087e9190611836565b9091555050604080518381526020810183905233917f8fafebcaf9d154343dad25669bfa277f4fbacd7ac6b0c4fed522580e040a0f33910160405180910390a2506108c860018055565b50565b6108d36113d6565b600d5460ff166109255760405162461bcd60e51b815260206004820152601c60248201527f546f6b656e7320617265206e6f7420636c61696d61626c65207965740000000060448201526064016104d4565b336000908152600e60205260409020546109795760405162461bcd60e51b8152602060048201526015602482015274139bc818dbdb9d1c9a589d5d1a5bdb88199bdd5b99605a1b60448201526064016104d4565b336000908152600f602052604090205460ff16156109d25760405162461bcd60e51b8152602060048201526016602482015275416c726561647920636c61696d656420746f6b656e7360501b60448201526064016104d4565b336000908152600e60205260408120546008549091906109fa83670de0b6b3a764000061184f565b610a049190611866565b336000818152600f60205260409020805460ff19166001179055600254919250610a38916001600160a01b031690836114a0565b60405181815233907f896e034966eaaf1adc54acc0f257056febbd300c9e47182cf761982cf1f5e4309060200160405180910390a25050610a7860018055565b565b6001600160a01b0381166000908152600e6020526040812054600854829182918291908290610ab183670de0b6b3a764000061184f565b610abb9190611866565b6001600160a01b03979097166000908152600f6020908152604080832054601090925290912054929860ff9182169750921694509092505050565b600454600554600654600754600c54600d54600a5460009687968796879687968796879660ff918216911680610b335750600a54610100900460ff165b959d949c50929a50909850965094509092509050565b610b5161137c565b610a7860006114d5565b610b6361137c565b428111610bc05760405162461bcd60e51b815260206004820152602560248201527f526566756e6420656e642074696d65206d75737420626520696e207468652066604482015264757475726560d81b60648201526084016104d4565b600955565b610bcd61137c565b6005544211610bee5760405162461bcd60e51b81526004016104d490611888565b600654600c541015610c395760405162461bcd60e51b815260206004820152601460248201527314dbd99d0818d85c081b9bdd081c995858da195960621b60448201526064016104d4565b600a54610100900460ff1615610ca75760405162461bcd60e51b815260206004820152602d60248201527f43616e6e6f74207769746864726177207768656e20676c6f62616c207265667560448201526c1b99081a5cc8195b98589b1959609a1b60648201526084016104d4565b6003546040516370a0823160e01b81523060048201526000916001600160a01b0316906370a0823190602401602060405180830381865afa158015610cf0573d6000803e3d6000fd5b505050506040513d601f19601f82011682018060405250810190610d1491906118b7565b905080156108c8576108c8610d316000546001600160a01b031690565b6003546001600160a01b031690836114a0565b610d4c6113d6565b600a5460ff16610d9e5760405162461bcd60e51b815260206004820152601760248201527f526566756e647320617265206e6f7420656e61626c656400000000000000000060448201526064016104d4565b336000908152600e6020526040902054610df25760405162461bcd60e51b8152602060048201526015602482015274139bc818dbdb9d1c9a589d5d1a5bdb88199bdd5b99605a1b60448201526064016104d4565b336000908152600f602052604090205460ff1615610e5e5760405162461bcd60e51b815260206004820152602360248201527f43616e6e6f7420726566756e6420616674657220636c61696d696e6720746f6b604482015262656e7360e81b60648201526084016104d4565b3360009081526010602052604090205460ff1615610eb15760405162461bcd60e51b815260206004820152601060248201526f105b1c9958591e481c99599d5b99195960821b60448201526064016104d4565b600a54610100900460ff16610f7157600954421115610f125760405162461bcd60e51b815260206004820152601760248201527f526566756e6420706572696f642068617320656e64656400000000000000000060448201526064016104d4565b600654600c541080610f25575060055442115b610f715760405162461bcd60e51b815260206004820152601860248201527f526566756e6420636f6e646974696f6e206e6f74206d6574000000000000000060448201526064016104d4565b336000818152600e60209081526040808320546010909252909120805460ff191660011790556003549091610fb0916001600160a01b031690836114a0565b60405181815233907fa171b6942063c6f2800ce40a780edce37baa2b618571b11eedd1e69e626e7d769060200160405180910390a250610a7860018055565b610ff761137c565b60055442116110185760405162461bcd60e51b81526004016104d490611888565b600b546002546040516370a0823160e01b8152306004820152600092916001600160a01b0316906370a0823190602401602060405180830381865afa158015611065573d6000803e3d6000fd5b505050506040513d601f19601f8201168201806040525081019061108991906118b7565b61109391906118d0565b905080156108c8576108c86110b06000546001600160a01b031690565b6002546001600160a01b031690836114a0565b6110cb61137c565b6005544210156110ed5760405162461bcd60e51b81526004016104d490611888565b600654600c5410156111385760405162461bcd60e51b815260206004820152601460248201527314dbd99d0818d85c081b9bdd081c995858da195960621b60448201526064016104d4565b600a54610100900460ff16156111b65760405162461bcd60e51b815260206004820152603860248201527f43616e6e6f7420656e61626c6520746f6b656e20636c61696d73207768656e2060448201527f676c6f62616c20726566756e6420697320656e61626c6564000000000000000060648201526084016104d4565b600d805460ff19908116600117909155600a805490911690556040517f923de0a3621b0edd895d821eb5b692ccf447b9d07b758dd0c535e1d2951f741a90600090a1565b61120261137c565b6001600160a01b0381166112675760405162461bcd60e51b815260206004820152602660248201527f4f776e61626c653a206e6577206f776e657220697320746865207a65726f206160448201526564647265737360d01b60648201526084016104d4565b6108c8816114d5565b61127861137c565b6000600454116112bc5760405162461bcd60e51b815260206004820152600f60248201526e125113c81b9bdd081cdd185c9d1959608a1b60448201526064016104d4565b6004544210156113085760405162461bcd60e51b8152602060048201526017602482015276125113c81a185cc81b9bdd081cdd185c9d1959081e595d604a1b60448201526064016104d4565b600554421061134d5760405162461bcd60e51b8152602060048201526011602482015270125113c8185b1c9958591e48195b991959607a1b60448201526064016104d4565b426005556040517f2ef24e13d793db1255118d8f26411f631efea7fc2debf72122c1a943835a7dcd90600090a1565b6000546001600160a01b03163314610a785760405162461bcd60e51b815260206004820181905260248201527f4f776e61626c653a2063616c6c6572206973206e6f7420746865206f776e657260448201526064016104d4565b6002600154036114285760405162461bcd60e51b815260206004820152601f60248201527f5265656e7472616e637947756172643a207265656e7472616e742063616c6c0060448201526064016104d4565b6002600155565b6040516001600160a01b038085166024830152831660448201526064810182905261149a9085906323b872dd60e01b906084015b60408051601f198184030181529190526020810180516001600160e01b03166001600160e01b031990931692909217909152611525565b50505050565b6040516001600160a01b0383166024820152604481018290526114d090849063a9059cbb60e01b90606401611463565b505050565b600080546001600160a01b038381166001600160a01b0319831681178455604051919092169283917f8be0079c531659141344cd1fd0a4f28419497f9722a3daafe3b4186f6b6457e09190a35050565b600061157a826040518060400160405280602081526020017f5361666545524332303a206c6f772d6c6576656c2063616c6c206661696c6564815250856001600160a01b03166115fa9092919063ffffffff16565b905080516000148061159b57508080602001905181019061159b91906118e3565b6114d05760405162461bcd60e51b815260206004820152602a60248201527f5361666545524332303a204552433230206f7065726174696f6e20646964206e6044820152691bdd081cdd58d8d9595960b21b60648201526084016104d4565b60606116098484600085611611565b949350505050565b6060824710156116725760405162461bcd60e51b815260206004820152602660248201527f416464726573733a20696e73756666696369656e742062616c616e636520666f6044820152651c8818d85b1b60d21b60648201526084016104d4565b600080866001600160a01b0316858760405161168e9190611924565b60006040518083038185875af1925050503d80600081146116cb576040519150601f19603f3d011682016040523d82523d6000602084013e6116d0565b606091505b50915091506116e1878383876116ec565b979650505050505050565b6060831561175b578251600003611754576001600160a01b0385163b6117545760405162461bcd60e51b815260206004820152601d60248201527f416464726573733a2063616c6c20746f206e6f6e2d636f6e747261637400000060448201526064016104d4565b5081611609565b61160983838151156117705781518083602001fd5b8060405162461bcd60e51b81526004016104d49190611940565b6000806040838503121561179d57600080fd5b50508035926020909101359150565b6000602082840312156117be57600080fd5b81356001600160a01b03811681146117d557600080fd5b9392505050565b80151581146108c857600080fd5b6000602082840312156117fc57600080fd5b81356117d5816117dc565b60006020828403121561181957600080fd5b5035919050565b634e487b7160e01b600052601160045260246000fd5b8082018082111561184957611849611820565b92915050565b808202811582820484141761184957611849611820565b60008261188357634e487b7160e01b600052601260045260246000fd5b500490565b602080825260159082015274125113c81a185cc81b9bdd08195b991959081e595d605a1b604082015260600190565b6000602082840312156118c957600080fd5b5051919050565b8181038181111561184957611849611820565b6000602082840312156118f557600080fd5b81516117d5816117dc565b60005b8381101561191b578181015183820152602001611903565b50506000910152565b60008251611936818460208701611900565b9190910192915050565b602081526000825180602084015261195f816040850160208701611900565b601f01601f1916919091016040019291505056fea2646970667358221220efc51d0d64b668a1951dc2ae771f3959fd8f95e80c0cddb7eadc218de13f8fa364736f6c63430008140033","opcodes":"PUSH1 0x80 PUSH1 0x40 MSTORE CALLVALUE DUP1 ISZERO PUSH3 0x11 JUMPI PUSH1 0x0 DUP1 REVERT JUMPDEST POP PUSH1 0x40 MLOAD PUSH3 0x1E90 CODESIZE SUB DUP1 PUSH3 0x1E90 DUP4 CODECOPY DUP2 ADD PUSH1 0x40 DUP2 SWAP1 MSTORE PUSH3 0x34 SWAP2 PUSH3 0x46A JUMP JUMPDEST CALLER PUSH3 0x40 DUP2 PUSH3 0x3FD JUMP JUMPDEST PUSH3 0x4B DUP2 PUSH3 0x3FD JUMP JUMPDEST POP PUSH1 0x1 DUP1 SSTORE PUSH1 0x1 PUSH1 0x1 PUSH1 0xA0 SHL SUB DUP6 AND PUSH3 0xAC JUMPI PUSH1 0x40 MLOAD PUSH3 0x461BCD PUSH1 0xE5 SHL DUP2 MSTORE PUSH1 0x20 PUSH1 0x4 DUP3 ADD MSTORE PUSH1 0x19 PUSH1 0x24 DUP3 ADD MSTORE PUSH32 0x496E76616C69642049444F20746F6B656E206164647265737300000000000000 PUSH1 0x44 DUP3 ADD MSTORE PUSH1 0x64 ADD JUMPDEST PUSH1 0x40 MLOAD DUP1 SWAP2 SUB SWAP1 REVERT JUMPDEST PUSH1 0x1 PUSH1 0x1 PUSH1 0xA0 SHL SUB DUP5 AND PUSH3 0x104 JUMPI PUSH1 0x40 MLOAD PUSH3 0x461BCD PUSH1 0xE5 SHL DUP2 MSTORE PUSH1 0x20 PUSH1 0x4 DUP3 ADD MSTORE PUSH1 0x1D PUSH1 0x24 DUP3 ADD MSTORE PUSH32 0x496E76616C6964207061796D656E7420746F6B656E2061646472657373000000 PUSH1 0x44 DUP3 ADD MSTORE PUSH1 0x64 ADD PUSH3 0xA3 JUMP JUMPDEST PUSH1 0x0 DUP4 GT PUSH3 0x161 JUMPI PUSH1 0x40 MLOAD PUSH3 0x461BCD PUSH1 0xE5 SHL DUP2 MSTORE PUSH1 0x20 PUSH1 0x4 DUP3 ADD MSTORE PUSH1 0x22 PUSH1 0x24 DUP3 ADD MSTORE PUSH32 0x546F6B656E207072696365206D7573742062652067726561746572207468616E PUSH1 0x44 DUP3 ADD MSTORE PUSH2 0x203 PUSH1 0xF4 SHL PUSH1 0x64 DUP3 ADD MSTORE PUSH1 0x84 ADD PUSH3 0xA3 JUMP JUMPDEST PUSH1 0x0 DUP3 GT PUSH3 0x1B3 JUMPI PUSH1 0x40 MLOAD PUSH3 0x461BCD PUSH1 0xE5 SHL DUP2 MSTORE PUSH1 0x20 PUSH1 0x4 DUP3 ADD MSTORE PUSH1 0x1F PUSH1 0x24 DUP3 ADD MSTORE PUSH32 0x536F667420636170206D7573742062652067726561746572207468616E203000 PUSH1 0x44 DUP3 ADD MSTORE PUSH1 0x64 ADD PUSH3 0xA3 JUMP JUMPDEST DUP2 DUP2 LT ISZERO PUSH3 0x220 JUMPI PUSH1 0x40 MLOAD PUSH3 0x461BCD PUSH1 0xE5 SHL DUP2 MSTORE PUSH1 0x20 PUSH1 0x4 DUP3 ADD MSTORE PUSH1 0x32 PUSH1 0x24 DUP3 ADD MSTORE PUSH32 0x4861726420636170206D7573742062652067726561746572207468616E206F72 PUSH1 0x44 DUP3 ADD MSTORE PUSH18 0x20657175616C20746F20736F66742063617 PUSH1 0x74 SHL PUSH1 0x64 DUP3 ADD MSTORE PUSH1 0x84 ADD PUSH3 0xA3 JUMP JUMPDEST DUP5 PUSH1 0x1 PUSH1 0x1 PUSH1 0xA0 SHL SUB AND PUSH4 0x18160DDD PUSH1 0x40 MLOAD DUP2 PUSH4 0xFFFFFFFF AND PUSH1 0xE0 SHL DUP2 MSTORE PUSH1 0x4 ADD PUSH1 0x20 PUSH1 0x40 MLOAD DUP1 DUP4 SUB DUP2 DUP7 GAS STATICCALL SWAP3 POP POP POP DUP1 ISZERO PUSH3 0x27D JUMPI POP PUSH1 0x40 DUP1 MLOAD PUSH1 0x1F RETURNDATASIZE SWAP1 DUP2 ADD PUSH1 0x1F NOT AND DUP3 ADD SWAP1 SWAP3 MSTORE PUSH3 0x27A SWAP2 DUP2 ADD SWAP1 PUSH3 0x4BD JUMP JUMPDEST PUSH1 0x1 JUMPDEST PUSH3 0x2E0 JUMPI PUSH1 0x40 MLOAD PUSH3 0x461BCD PUSH1 0xE5 SHL DUP2 MSTORE PUSH1 0x20 PUSH1 0x4 DUP3 ADD MSTORE PUSH1 0x2C PUSH1 0x24 DUP3 ADD MSTORE PUSH32 0x49444F20746F6B656E20646F6573206E6F7420636F6E666F726D20746F204552 PUSH1 0x44 DUP3 ADD MSTORE PUSH12 0x10CC8C081CDD185B99185C99 PUSH1 0xA2 SHL PUSH1 0x64 DUP3 ADD MSTORE PUSH1 0x84 ADD PUSH3 0xA3 JUMP JUMPDEST POP DUP4 PUSH1 0x1 PUSH1 0x1 PUSH1 0xA0 SHL SUB AND PUSH4 0x18160DDD PUSH1 0x40 MLOAD DUP2 PUSH4 0xFFFFFFFF AND PUSH1 0xE0 SHL DUP2 MSTORE PUSH1 0x4 ADD PUSH1 0x20 PUSH1 0x40 MLOAD DUP1 DUP4 SUB DUP2 DUP7 GAS STATICCALL SWAP3 POP POP POP DUP1 ISZERO PUSH3 0x33E JUMPI POP PUSH1 0x40 DUP1 MLOAD PUSH1 0x1F RETURNDATASIZE SWAP1 DUP2 ADD PUSH1 0x1F NOT AND DUP3 ADD SWAP1 SWAP3 MSTORE PUSH3 0x33B SWAP2 DUP2 ADD SWAP1 PUSH3 0x4BD JUMP JUMPDEST PUSH1 0x1 JUMPDEST PUSH3 0x3A5 JUMPI PUSH1 0x40 MLOAD PUSH3 0x461BCD PUSH1 0xE5 SHL DUP2 MSTORE PUSH1 0x20 PUSH1 0x4 DUP3 ADD MSTORE PUSH1 0x30 PUSH1 0x24 DUP3 ADD MSTORE PUSH32 0x5061796D656E7420746F6B656E20646F6573206E6F7420636F6E666F726D2074 PUSH1 0x44 DUP3 ADD MSTORE PUSH16 0x1BC8115490CC8C081CDD185B99185C99 PUSH1 0x82 SHL PUSH1 0x64 DUP3 ADD MSTORE PUSH1 0x84 ADD PUSH3 0xA3 JUMP JUMPDEST POP PUSH1 0x2 DUP1 SLOAD PUSH1 0x1 PUSH1 0x1 PUSH1 0xA0 SHL SUB SWAP7 DUP8 AND PUSH1 0x1 PUSH1 0x1 PUSH1 0xA0 SHL SUB NOT SWAP2 DUP3 AND OR SWAP1 SWAP2 SSTORE PUSH1 0x3 DUP1 SLOAD SWAP6 SWAP1 SWAP7 AND SWAP5 AND SWAP4 SWAP1 SWAP4 OR SWAP1 SWAP4 SSTORE PUSH1 0x8 SSTORE PUSH1 0x6 SWAP2 SWAP1 SWAP2 SSTORE PUSH1 0x7 SSTORE PUSH1 0xA DUP1 SLOAD PUSH2 0xFFFF NOT AND SWAP1 SSTORE PUSH1 0xD DUP1 SLOAD PUSH1 0xFF NOT AND SWAP1 SSTORE PUSH3 0x4D7 JUMP JUMPDEST PUSH1 0x0 DUP1 SLOAD PUSH1 0x1 PUSH1 0x1 PUSH1 0xA0 SHL SUB DUP4 DUP2 AND PUSH1 0x1 PUSH1 0x1 PUSH1 0xA0 SHL SUB NOT DUP4 AND DUP2 OR DUP5 SSTORE PUSH1 0x40 MLOAD SWAP2 SWAP1 SWAP3 AND SWAP3 DUP4 SWAP2 PUSH32 0x8BE0079C531659141344CD1FD0A4F28419497F9722A3DAAFE3B4186F6B6457E0 SWAP2 SWAP1 LOG3 POP POP JUMP JUMPDEST DUP1 MLOAD PUSH1 0x1 PUSH1 0x1 PUSH1 0xA0 SHL SUB DUP2 AND DUP2 EQ PUSH3 0x465 JUMPI PUSH1 0x0 DUP1 REVERT JUMPDEST SWAP2 SWAP1 POP JUMP JUMPDEST PUSH1 0x0 DUP1 PUSH1 0x0 DUP1 PUSH1 0x0 PUSH1 0xA0 DUP7 DUP9 SUB SLT ISZERO PUSH3 0x483 JUMPI PUSH1 0x0 DUP1 REVERT JUMPDEST PUSH3 0x48E DUP7 PUSH3 0x44D JUMP JUMPDEST SWAP5 POP PUSH3 0x49E PUSH1 0x20 DUP8 ADD PUSH3 0x44D JUMP JUMPDEST PUSH1 0x40 DUP8 ADD MLOAD PUSH1 0x60 DUP9 ADD MLOAD PUSH1 0x80 SWAP1 SWAP9 ADD MLOAD SWAP7 SWAP10 SWAP2 SWAP9 POP SWAP7 SWAP6 SWAP5 POP SWAP3 POP POP POP JUMP JUMPDEST PUSH1 0x0 PUSH1 0x20 DUP3 DUP5 SUB SLT ISZERO PUSH3 0x4D0 JUMPI PUSH1 0x0 DUP1 REVERT JUMPDEST POP MLOAD SWAP2 SWAP1 POP JUMP JUMPDEST PUSH2 0x19A9 DUP1 PUSH3 0x4E7 PUSH1 0x0 CODECOPY PUSH1 0x0 RETURN INVALID PUSH1 0x80 PUSH1 0x40 MSTORE CALLVALUE DUP1 ISZERO PUSH2 0x10 JUMPI PUSH1 0x0 DUP1 REVERT JUMPDEST POP PUSH1 0x4 CALLDATASIZE LT PUSH2 0x1F0 JUMPI PUSH1 0x0 CALLDATALOAD PUSH1 0xE0 SHR DUP1 PUSH4 0x73B2E80E GT PUSH2 0x10F JUMPI DUP1 PUSH4 0xB4A30910 GT PUSH2 0xA2 JUMPI DUP1 PUSH4 0xE72F98E1 GT PUSH2 0x71 JUMPI DUP1 PUSH4 0xE72F98E1 EQ PUSH2 0x432 JUMPI DUP1 PUSH4 0xF2FDE38B EQ PUSH2 0x43A JUMPI DUP1 PUSH4 0xFAAD0FC1 EQ PUSH2 0x44D JUMPI DUP1 PUSH4 0xFB86A404 EQ PUSH2 0x455 JUMPI PUSH1 0x0 DUP1 REVERT JUMPDEST DUP1 PUSH4 0xB4A30910 EQ PUSH2 0x407 JUMPI DUP1 PUSH4 0xB5545A3C EQ PUSH2 0x40F JUMPI DUP1 PUSH4 0xC8BDBFB6 EQ PUSH2 0x417 JUMPI DUP1 PUSH4 0xD6CD82BC EQ PUSH2 0x41F JUMPI PUSH1 0x0 DUP1 REVERT JUMPDEST DUP1 PUSH4 0x8C5D80DD GT PUSH2 0xDE JUMPI DUP1 PUSH4 0x8C5D80DD EQ PUSH2 0x3D1 JUMPI DUP1 PUSH4 0x8DA5CB5B EQ PUSH2 0x3E4 JUMPI DUP1 PUSH4 0x8E1EE99D EQ PUSH2 0x3F5 JUMPI DUP1 PUSH4 0x906A26E0 EQ PUSH2 0x3FE JUMPI PUSH1 0x0 DUP1 REVERT JUMPDEST DUP1 PUSH4 0x73B2E80E EQ PUSH2 0x393 JUMPI DUP1 PUSH4 0x73FDDD16 EQ PUSH2 0x3B6 JUMPI DUP1 PUSH4 0x78E97925 EQ PUSH2 0x3BF JUMPI DUP1 PUSH4 0x7FF9B596 EQ PUSH2 0x3C8 JUMPI PUSH1 0x0 DUP1 REVERT JUMPDEST DUP1 PUSH4 0x3610724E GT PUSH2 0x187 JUMPI DUP1 PUSH4 0x6386C1C7 GT PUSH2 0x156 JUMPI DUP1 PUSH4 0x6386C1C7 EQ PUSH2 0x306 JUMPI DUP1 PUSH4 0x63B20117 EQ PUSH2 0x341 JUMPI DUP1 PUSH4 0x66A4559B EQ PUSH2 0x34A JUMPI DUP1 PUSH4 0x715018A6 EQ PUSH2 0x38B JUMPI PUSH1 0x0 DUP1 REVERT JUMPDEST DUP1 PUSH4 0x3610724E EQ PUSH2 0x2BE JUMPI DUP1 PUSH4 0x42E94C90 EQ PUSH2 0x2D1 JUMPI DUP1 PUSH4 0x48C54B9D EQ PUSH2 0x2F1 JUMPI DUP1 PUSH4 0x532F1179 EQ PUSH2 0x2F9 JUMPI PUSH1 0x0 DUP1 REVERT JUMPDEST DUP1 PUSH4 0x3013CE29 GT PUSH2 0x1C3 JUMPI DUP1 PUSH4 0x3013CE29 EQ PUSH2 0x25C JUMPI DUP1 PUSH4 0x30767D09 EQ PUSH2 0x287 JUMPI DUP1 PUSH4 0x3197CBB6 EQ PUSH2 0x29A JUMPI DUP1 PUSH4 0x31F684C0 EQ PUSH2 0x2B1 JUMPI PUSH1 0x0 DUP1 REVERT JUMPDEST DUP1 PUSH4 0x302F2CE EQ PUSH2 0x1F5 JUMPI DUP1 PUSH4 0xE294700 EQ PUSH2 0x1FF JUMPI DUP1 PUSH4 0xE6CAC51 EQ PUSH2 0x212 JUMPI DUP1 PUSH4 0x2B6B0633 EQ PUSH2 0x239 JUMPI JUMPDEST PUSH1 0x0 DUP1 REVERT JUMPDEST PUSH2 0x1FD PUSH2 0x45E JUMP JUMPDEST STOP JUMPDEST PUSH2 0x1FD PUSH2 0x20D CALLDATASIZE PUSH1 0x4 PUSH2 0x178A JUMP JUMPDEST PUSH2 0x517 JUMP JUMPDEST PUSH1 0xA SLOAD PUSH2 0x224 SWAP1 PUSH2 0x100 SWAP1 DIV PUSH1 0xFF AND DUP2 JUMP JUMPDEST PUSH1 0x40 MLOAD SWAP1 ISZERO ISZERO DUP2 MSTORE PUSH1 0x20 ADD JUMPDEST PUSH1 0x40 MLOAD DUP1 SWAP2 SUB SWAP1 RETURN JUMPDEST PUSH2 0x224 PUSH2 0x247 CALLDATASIZE PUSH1 0x4 PUSH2 0x17AC JUMP JUMPDEST PUSH1 0x10 PUSH1 0x20 MSTORE PUSH1 0x0 SWAP1 DUP2 MSTORE PUSH1 0x40 SWAP1 KECCAK256 SLOAD PUSH1 0xFF AND DUP2 JUMP JUMPDEST PUSH1 0x3 SLOAD PUSH2 0x26F SWAP1 PUSH1 0x1 PUSH1 0x1 PUSH1 0xA0 SHL SUB AND DUP2 JUMP JUMPDEST PUSH1 0x40 MLOAD PUSH1 0x1 PUSH1 0x1 PUSH1 0xA0 SHL SUB SWAP1 SWAP2 AND DUP2 MSTORE PUSH1 0x20 ADD PUSH2 0x230 JUMP JUMPDEST PUSH2 0x1FD PUSH2 0x295 CALLDATASIZE PUSH1 0x4 PUSH2 0x17EA JUMP JUMPDEST PUSH2 0x655 JUMP JUMPDEST PUSH2 0x2A3 PUSH1 0x5 SLOAD DUP2 JUMP JUMPDEST PUSH1 0x40 MLOAD SWAP1 DUP2 MSTORE PUSH1 0x20 ADD PUSH2 0x230 JUMP JUMPDEST PUSH1 0xD SLOAD PUSH2 0x224 SWAP1 PUSH1 0xFF AND DUP2 JUMP JUMPDEST PUSH2 0x1FD PUSH2 0x2CC CALLDATASIZE PUSH1 0x4 PUSH2 0x1807 JUMP JUMPDEST PUSH2 0x670 JUMP JUMPDEST PUSH2 0x2A3 PUSH2 0x2DF CALLDATASIZE PUSH1 0x4 PUSH2 0x17AC JUMP JUMPDEST PUSH1 0xE PUSH1 0x20 MSTORE PUSH1 0x0 SWAP1 DUP2 MSTORE PUSH1 0x40 SWAP1 KECCAK256 SLOAD DUP2 JUMP JUMPDEST PUSH2 0x1FD PUSH2 0x8CB JUMP JUMPDEST PUSH1 0xA SLOAD PUSH2 0x224 SWAP1 PUSH1 0xFF AND DUP2 JUMP JUMPDEST PUSH2 0x319 PUSH2 0x314 CALLDATASIZE PUSH1 0x4 PUSH2 0x17AC JUMP JUMPDEST PUSH2 0xA7A JUMP JUMPDEST PUSH1 0x40 DUP1 MLOAD SWAP5 DUP6 MSTORE PUSH1 0x20 DUP6 ADD SWAP4 SWAP1 SWAP4 MSTORE SWAP1 ISZERO ISZERO SWAP2 DUP4 ADD SWAP2 SWAP1 SWAP2 MSTORE ISZERO ISZERO PUSH1 0x60 DUP3 ADD MSTORE PUSH1 0x80 ADD PUSH2 0x230 JUMP JUMPDEST PUSH2 0x2A3 PUSH1 0xB SLOAD DUP2 JUMP JUMPDEST PUSH2 0x352 PUSH2 0xAF6 JUMP JUMPDEST PUSH1 0x40 DUP1 MLOAD SWAP8 DUP9 MSTORE PUSH1 0x20 DUP9 ADD SWAP7 SWAP1 SWAP7 MSTORE SWAP5 DUP7 ADD SWAP4 SWAP1 SWAP4 MSTORE PUSH1 0x60 DUP6 ADD SWAP2 SWAP1 SWAP2 MSTORE PUSH1 0x80 DUP5 ADD MSTORE ISZERO ISZERO PUSH1 0xA0 DUP4 ADD MSTORE ISZERO ISZERO PUSH1 0xC0 DUP3 ADD MSTORE PUSH1 0xE0 ADD PUSH2 0x230 JUMP JUMPDEST PUSH2 0x1FD PUSH2 0xB49 JUMP JUMPDEST PUSH2 0x224 PUSH2 0x3A1 CALLDATASIZE PUSH1 0x4 PUSH2 0x17AC JUMP JUMPDEST PUSH1 0xF PUSH1 0x20 MSTORE PUSH1 0x0 SWAP1 DUP2 MSTORE PUSH1 0x40 SWAP1 KECCAK256 SLOAD PUSH1 0xFF AND DUP2 JUMP JUMPDEST PUSH2 0x2A3 PUSH1 0x9 SLOAD DUP2 JUMP JUMPDEST PUSH2 0x2A3 PUSH1 0x4 SLOAD DUP2 JUMP JUMPDEST PUSH2 0x2A3 PUSH1 0x8 SLOAD DUP2 JUMP JUMPDEST PUSH2 0x1FD PUSH2 0x3DF CALLDATASIZE PUSH1 0x4 PUSH2 0x1807 JUMP JUMPDEST PUSH2 0xB5B JUMP JUMPDEST PUSH1 0x0 SLOAD PUSH1 0x1 PUSH1 0x1 PUSH1 0xA0 SHL SUB AND PUSH2 0x26F JUMP JUMPDEST PUSH2 0x2A3 PUSH1 0xC SLOAD DUP2 JUMP JUMPDEST PUSH2 0x2A3 PUSH1 0x6 SLOAD DUP2 JUMP JUMPDEST PUSH2 0x1FD PUSH2 0xBC5 JUMP JUMPDEST PUSH2 0x1FD PUSH2 0xD44 JUMP JUMPDEST PUSH2 0x1FD PUSH2 0xFEF JUMP JUMPDEST PUSH1 0x2 SLOAD PUSH2 0x26F SWAP1 PUSH1 0x1 PUSH1 0x1 PUSH1 0xA0 SHL SUB AND DUP2 JUMP JUMPDEST PUSH2 0x1FD PUSH2 0x10C3 JUMP JUMPDEST PUSH2 0x1FD PUSH2 0x448 CALLDATASIZE PUSH1 0x4 PUSH2 0x17AC JUMP JUMPDEST PUSH2 0x11FA JUMP JUMPDEST PUSH2 0x1FD PUSH2 0x1270 JUMP JUMPDEST PUSH2 0x2A3 PUSH1 0x7 SLOAD DUP2 JUMP JUMPDEST PUSH2 0x466 PUSH2 0x137C JUMP JUMPDEST PUSH1 0xD SLOAD PUSH1 0xFF AND ISZERO PUSH2 0x4DD JUMPI PUSH1 0x40 MLOAD PUSH3 0x461BCD PUSH1 0xE5 SHL DUP2 MSTORE PUSH1 0x20 PUSH1 0x4 DUP3 ADD MSTORE PUSH1 0x36 PUSH1 0x24 DUP3 ADD MSTORE PUSH32 0x43616E6E6F7420656E61626C6520676C6F62616C20726566756E642061667465 PUSH1 0x44 DUP3 ADD MSTORE PUSH22 0x7220746F6B656E732061726520636C61696D61626C65 PUSH1 0x50 SHL PUSH1 0x64 DUP3 ADD MSTORE PUSH1 0x84 ADD JUMPDEST PUSH1 0x40 MLOAD DUP1 SWAP2 SUB SWAP1 REVERT JUMPDEST PUSH1 0xA DUP1 SLOAD PUSH2 0xFFFF NOT AND PUSH2 0x101 OR SWAP1 SSTORE PUSH1 0x40 MLOAD PUSH32 0xF6D8D1EA391776E47ACC6A0589088B8F9032E90B78F6FAFE228506AD35E99E04 SWAP1 PUSH1 0x0 SWAP1 LOG1 JUMP JUMPDEST PUSH2 0x51F PUSH2 0x137C JUMP JUMPDEST TIMESTAMP DUP3 LT ISZERO PUSH2 0x56F JUMPI PUSH1 0x40 MLOAD PUSH3 0x461BCD PUSH1 0xE5 SHL DUP2 MSTORE PUSH1 0x20 PUSH1 0x4 DUP3 ADD DUP2 SWAP1 MSTORE PUSH1 0x24 DUP3 ADD MSTORE PUSH32 0x53746172742074696D65206D75737420626520696E2074686520667574757265 PUSH1 0x44 DUP3 ADD MSTORE PUSH1 0x64 ADD PUSH2 0x4D4 JUMP JUMPDEST DUP2 DUP2 GT PUSH2 0x5C8 JUMPI PUSH1 0x40 MLOAD PUSH3 0x461BCD PUSH1 0xE5 SHL DUP2 MSTORE PUSH1 0x20 PUSH1 0x4 DUP3 ADD MSTORE PUSH1 0x21 PUSH1 0x24 DUP3 ADD MSTORE PUSH32 0x456E642074696D65206D7573742062652061667465722073746172742074696D PUSH1 0x44 DUP3 ADD MSTORE PUSH1 0x65 PUSH1 0xF8 SHL PUSH1 0x64 DUP3 ADD MSTORE PUSH1 0x84 ADD PUSH2 0x4D4 JUMP JUMPDEST PUSH1 0x4 SLOAD ISZERO PUSH2 0x60E JUMPI PUSH1 0x40 MLOAD PUSH3 0x461BCD PUSH1 0xE5 SHL DUP2 MSTORE PUSH1 0x20 PUSH1 0x4 DUP3 ADD MSTORE PUSH1 0x13 PUSH1 0x24 DUP3 ADD MSTORE PUSH19 0x125113C8185B1C9958591E481CDD185C9D1959 PUSH1 0x6A SHL PUSH1 0x44 DUP3 ADD MSTORE PUSH1 0x64 ADD PUSH2 0x4D4 JUMP JUMPDEST PUSH1 0x4 DUP3 SWAP1 SSTORE PUSH1 0x5 DUP2 SWAP1 SSTORE PUSH1 0x40 DUP1 MLOAD DUP4 DUP2 MSTORE PUSH1 0x20 DUP2 ADD DUP4 SWAP1 MSTORE PUSH32 0xF32B942F17DCDC7B72249566BFC2F10364FCD97AFAB884EAF749198ABDF98CFB SWAP2 ADD PUSH1 0x40 MLOAD DUP1 SWAP2 SUB SWAP1 LOG1 POP POP JUMP JUMPDEST PUSH2 0x65D PUSH2 0x137C JUMP JUMPDEST PUSH1 0xA DUP1 SLOAD PUSH1 0xFF NOT AND SWAP2 ISZERO ISZERO SWAP2 SWAP1 SWAP2 OR SWAP1 SSTORE JUMP JUMPDEST PUSH2 0x678 PUSH2 0x13D6 JUMP JUMPDEST PUSH1 0x4 SLOAD TIMESTAMP LT ISZERO PUSH2 0x6C4 JUMPI PUSH1 0x40 MLOAD PUSH3 0x461BCD PUSH1 0xE5 SHL DUP2 MSTORE PUSH1 0x20 PUSH1 0x4 DUP3 ADD MSTORE PUSH1 0x17 PUSH1 0x24 DUP3 ADD MSTORE PUSH23 0x125113C81A185CC81B9BDD081CDD185C9D1959081E595D PUSH1 0x4A SHL PUSH1 0x44 DUP3 ADD MSTORE PUSH1 0x64 ADD PUSH2 0x4D4 JUMP JUMPDEST PUSH1 0x5 SLOAD TIMESTAMP GT ISZERO PUSH2 0x706 JUMPI PUSH1 0x40 MLOAD PUSH3 0x461BCD PUSH1 0xE5 SHL DUP2 MSTORE PUSH1 0x20 PUSH1 0x4 DUP3 ADD MSTORE PUSH1 0xD PUSH1 0x24 DUP3 ADD MSTORE PUSH13 0x125113C81A185CC8195B991959 PUSH1 0x9A SHL PUSH1 0x44 DUP3 ADD MSTORE PUSH1 0x64 ADD PUSH2 0x4D4 JUMP JUMPDEST PUSH1 0x0 DUP2 GT PUSH2 0x756 JUMPI PUSH1 0x40 MLOAD PUSH3 0x461BCD PUSH1 0xE5 SHL DUP2 MSTORE PUSH1 0x20 PUSH1 0x4 DUP3 ADD MSTORE PUSH1 0x1D PUSH1 0x24 DUP3 ADD MSTORE PUSH32 0x416D6F756E74206D7573742062652067726561746572207468616E2030000000 PUSH1 0x44 DUP3 ADD MSTORE PUSH1 0x64 ADD PUSH2 0x4D4 JUMP JUMPDEST PUSH1 0x7 SLOAD DUP2 PUSH1 0xC SLOAD PUSH2 0x767 SWAP2 SWAP1 PUSH2 0x1836 JUMP JUMPDEST GT ISZERO PUSH2 0x7A8 JUMPI PUSH1 0x40 MLOAD PUSH3 0x461BCD PUSH1 0xE5 SHL DUP2 MSTORE PUSH1 0x20 PUSH1 0x4 DUP3 ADD MSTORE PUSH1 0x10 PUSH1 0x24 DUP3 ADD MSTORE PUSH16 0x4578636565647320686172642063617 PUSH1 0x84 SHL PUSH1 0x44 DUP3 ADD MSTORE PUSH1 0x64 ADD PUSH2 0x4D4 JUMP JUMPDEST PUSH1 0x8 SLOAD PUSH1 0x0 SWAP1 PUSH2 0x7C0 DUP4 PUSH8 0xDE0B6B3A7640000 PUSH2 0x184F JUMP JUMPDEST PUSH2 0x7CA SWAP2 SWAP1 PUSH2 0x1866 JUMP JUMPDEST SWAP1 POP PUSH1 0x0 DUP2 GT PUSH2 0x815 JUMPI PUSH1 0x40 MLOAD PUSH3 0x461BCD PUSH1 0xE5 SHL DUP2 MSTORE PUSH1 0x20 PUSH1 0x4 DUP3 ADD MSTORE PUSH1 0x16 PUSH1 0x24 DUP3 ADD MSTORE PUSH22 0x151BDAD95B88185B5BDD5B9D081D1BDBC81CDB585B1B PUSH1 0x52 SHL PUSH1 0x44 DUP3 ADD MSTORE PUSH1 0x64 ADD PUSH2 0x4D4 JUMP JUMPDEST PUSH1 0x3 SLOAD PUSH2 0x82D SWAP1 PUSH1 0x1 PUSH1 0x1 PUSH1 0xA0 SHL SUB AND CALLER ADDRESS DUP6 PUSH2 0x142F JUMP JUMPDEST CALLER PUSH1 0x0 SWAP1 DUP2 MSTORE PUSH1 0xE PUSH1 0x20 MSTORE PUSH1 0x40 DUP2 KECCAK256 DUP1 SLOAD DUP5 SWAP3 SWAP1 PUSH2 0x84C SWAP1 DUP5 SWAP1 PUSH2 0x1836 JUMP JUMPDEST SWAP3 POP POP DUP2 SWAP1 SSTORE POP DUP2 PUSH1 0xC PUSH1 0x0 DUP3 DUP3 SLOAD PUSH2 0x865 SWAP2 SWAP1 PUSH2 0x1836 JUMP JUMPDEST SWAP3 POP POP DUP2 SWAP1 SSTORE POP DUP1 PUSH1 0xB PUSH1 0x0 DUP3 DUP3 SLOAD PUSH2 0x87E SWAP2 SWAP1 PUSH2 0x1836 JUMP JUMPDEST SWAP1 SWAP2 SSTORE POP POP PUSH1 0x40 DUP1 MLOAD DUP4 DUP2 MSTORE PUSH1 0x20 DUP2 ADD DUP4 SWAP1 MSTORE CALLER SWAP2 PUSH32 0x8FAFEBCAF9D154343DAD25669BFA277F4FBACD7AC6B0C4FED522580E040A0F33 SWAP2 ADD PUSH1 0x40 MLOAD DUP1 SWAP2 SUB SWAP1 LOG2 POP PUSH2 0x8C8 PUSH1 0x1 DUP1 SSTORE JUMP JUMPDEST POP JUMP JUMPDEST PUSH2 0x8D3 PUSH2 0x13D6 JUMP JUMPDEST PUSH1 0xD SLOAD PUSH1 0xFF AND PUSH2 0x925 JUMPI PUSH1 0x40 MLOAD PUSH3 0x461BCD PUSH1 0xE5 SHL DUP2 MSTORE PUSH1 0x20 PUSH1 0x4 DUP3 ADD MSTORE PUSH1 0x1C PUSH1 0x24 DUP3 ADD MSTORE PUSH32 0x546F6B656E7320617265206E6F7420636C61696D61626C652079657400000000 PUSH1 0x44 DUP3 ADD MSTORE PUSH1 0x64 ADD PUSH2 0x4D4 JUMP JUMPDEST CALLER PUSH1 0x0 SWAP1 DUP2 MSTORE PUSH1 0xE PUSH1 0x20 MSTORE PUSH1 0x40 SWAP1 KECCAK256 SLOAD PUSH2 0x979 JUMPI PUSH1 0x40 MLOAD PUSH3 0x461BCD PUSH1 0xE5 SHL DUP2 MSTORE PUSH1 0x20 PUSH1 0x4 DUP3 ADD MSTORE PUSH1 0x15 PUSH1 0x24 DUP3 ADD MSTORE PUSH21 0x139BC818DBDB9D1C9A589D5D1A5BDB88199BDD5B99 PUSH1 0x5A SHL PUSH1 0x44 DUP3 ADD MSTORE PUSH1 0x64 ADD PUSH2 0x4D4 JUMP JUMPDEST CALLER PUSH1 0x0 SWAP1 DUP2 MSTORE PUSH1 0xF PUSH1 0x20 MSTORE PUSH1 0x40 SWAP1 KECCAK256 SLOAD PUSH1 0xFF AND ISZERO PUSH2 0x9D2 JUMPI PUSH1 0x40 MLOAD PUSH3 0x461BCD PUSH1 0xE5 SHL DUP2 MSTORE PUSH1 0x20 PUSH1 0x4 DUP3 ADD MSTORE PUSH1 0x16 PUSH1 0x24 DUP3 ADD MSTORE PUSH22 0x416C726561647920636C61696D656420746F6B656E73 PUSH1 0x50 SHL PUSH1 0x44 DUP3 ADD MSTORE PUSH1 0x64 ADD PUSH2 0x4D4 JUMP JUMPDEST CALLER PUSH1 0x0 SWAP1 DUP2 MSTORE PUSH1 0xE PUSH1 0x20 MSTORE PUSH1 0x40 DUP2 KECCAK256 SLOAD PUSH1 0x8 SLOAD SWAP1 SWAP2 SWAP1 PUSH2 0x9FA DUP4 PUSH8 0xDE0B6B3A7640000 PUSH2 0x184F JUMP JUMPDEST PUSH2 0xA04 SWAP2 SWAP1 PUSH2 0x1866 JUMP JUMPDEST CALLER PUSH1 0x0 DUP2 DUP2 MSTORE PUSH1 0xF PUSH1 0x20 MSTORE PUSH1 0x40 SWAP1 KECCAK256 DUP1 SLOAD PUSH1 0xFF NOT AND PUSH1 0x1 OR SWAP1 SSTORE PUSH1 0x2 SLOAD SWAP2 SWAP3 POP PUSH2 0xA38 SWAP2 PUSH1 0x1 PUSH1 0x1 PUSH1 0xA0 SHL SUB AND SWAP1 DUP4 PUSH2 0x14A0 JUMP JUMPDEST PUSH1 0x40 MLOAD DUP2 DUP2 MSTORE CALLER SWAP1 PUSH32 0x896E034966EAAF1ADC54ACC0F257056FEBBD300C9E47182CF761982CF1F5E430 SWAP1 PUSH1 0x20 ADD PUSH1 0x40 MLOAD DUP1 SWAP2 SUB SWAP1 LOG2 POP POP PUSH2 0xA78 PUSH1 0x1 DUP1 SSTORE JUMP JUMPDEST JUMP JUMPDEST PUSH1 0x1 PUSH1 0x1 PUSH1 0xA0 SHL SUB DUP2 AND PUSH1 0x0 SWAP1 DUP2 MSTORE PUSH1 0xE PUSH1 0x20 MSTORE PUSH1 0x40 DUP2 KECCAK256 SLOAD PUSH1 0x8 SLOAD DUP3 SWAP2 DUP3 SWAP2 DUP3 SWAP2 SWAP1 DUP3 SWAP1 PUSH2 0xAB1 DUP4 PUSH8 0xDE0B6B3A7640000 PUSH2 0x184F JUMP JUMPDEST PUSH2 0xABB SWAP2 SWAP1 PUSH2 0x1866 JUMP JUMPDEST PUSH1 0x1 PUSH1 0x1 PUSH1 0xA0 SHL SUB SWAP8 SWAP1 SWAP8 AND PUSH1 0x0 SWAP1 DUP2 MSTORE PUSH1 0xF PUSH1 0x20 SWAP1 DUP2 MSTORE PUSH1 0x40 DUP1 DUP4 KECCAK256 SLOAD PUSH1 0x10 SWAP1 SWAP3 MSTORE SWAP1 SWAP2 KECCAK256 SLOAD SWAP3 SWAP9 PUSH1 0xFF SWAP2 DUP3 AND SWAP8 POP SWAP3 AND SWAP5 POP SWAP1 SWAP3 POP POP POP JUMP JUMPDEST PUSH1 0x4 SLOAD PUSH1 0x5 SLOAD PUSH1 0x6 SLOAD PUSH1 0x7 SLOAD PUSH1 0xC SLOAD PUSH1 0xD SLOAD PUSH1 0xA SLOAD PUSH1 0x0 SWAP7 DUP8 SWAP7 DUP8 SWAP7 DUP8 SWAP7 DUP8 SWAP7 DUP8 SWAP7 DUP8 SWAP7 PUSH1 0xFF SWAP2 DUP3 AND SWAP2 AND DUP1 PUSH2 0xB33 JUMPI POP PUSH1 0xA SLOAD PUSH2 0x100 SWAP1 DIV PUSH1 0xFF AND JUMPDEST SWAP6 SWAP14 SWAP5 SWAP13 POP SWAP3 SWAP11 POP SWAP1 SWAP9 POP SWAP7 POP SWAP5 POP SWAP1 SWAP3 POP SWAP1 POP JUMP JUMPDEST PUSH2 0xB51 PUSH2 0x137C JUMP JUMPDEST PUSH2 0xA78 PUSH1 0x0 PUSH2 0x14D5 JUMP JUMPDEST PUSH2 0xB63 PUSH2 0x137C JUMP JUMPDEST TIMESTAMP DUP2 GT PUSH2 0xBC0 JUMPI PUSH1 0x40 MLOAD PUSH3 0x461BCD PUSH1 0xE5 SHL DUP2 MSTORE PUSH1 0x20 PUSH1 0x4 DUP3 ADD MSTORE PUSH1 0x25 PUSH1 0x24 DUP3 ADD MSTORE PUSH32 0x526566756E6420656E642074696D65206D75737420626520696E207468652066 PUSH1 0x44 DUP3 ADD MSTORE PUSH5 0x7574757265 PUSH1 0xD8 SHL PUSH1 0x64 DUP3 ADD MSTORE PUSH1 0x84 ADD PUSH2 0x4D4 JUMP JUMPDEST PUSH1 0x9 SSTORE JUMP JUMPDEST PUSH2 0xBCD PUSH2 0x137C JUMP JUMPDEST PUSH1 0x5 SLOAD TIMESTAMP GT PUSH2 0xBEE JUMPI PUSH1 0x40 MLOAD PUSH3 0x461BCD PUSH1 0xE5 SHL DUP2 MSTORE PUSH1 0x4 ADD PUSH2 0x4D4 SWAP1 PUSH2 0x1888 JUMP JUMPDEST PUSH1 0x6 SLOAD PUSH1 0xC SLOAD LT ISZERO PUSH2 0xC39 JUMPI PUSH1 0x40 MLOAD PUSH3 0x461BCD PUSH1 0xE5 SHL DUP2 MSTORE PUSH1 0x20 PUSH1 0x4 DUP3 ADD MSTORE PUSH1 0x14 PUSH1 0x24 DUP3 ADD MSTORE PUSH20 0x14DBD99D0818D85C081B9BDD081C995858DA1959 PUSH1 0x62 SHL PUSH1 0x44 DUP3 ADD MSTORE PUSH1 0x64 ADD PUSH2 0x4D4 JUMP JUMPDEST PUSH1 0xA SLOAD PUSH2 0x100 SWAP1 DIV PUSH1 0xFF AND ISZERO PUSH2 0xCA7 JUMPI PUSH1 0x40 MLOAD PUSH3 0x461BCD PUSH1 0xE5 SHL DUP2 MSTORE PUSH1 0x20 PUSH1 0x4 DUP3 ADD MSTORE PUSH1 0x2D PUSH1 0x24 DUP3 ADD MSTORE PUSH32 0x43616E6E6F74207769746864726177207768656E20676C6F62616C2072656675 PUSH1 0x44 DUP3 ADD MSTORE PUSH13 0x1B99081A5CC8195B98589B1959 PUSH1 0x9A SHL PUSH1 0x64 DUP3 ADD MSTORE PUSH1 0x84 ADD PUSH2 0x4D4 JUMP JUMPDEST PUSH1 0x3 SLOAD PUSH1 0x40 MLOAD PUSH4 0x70A08231 PUSH1 0xE0 SHL DUP2 MSTORE ADDRESS PUSH1 0x4 DUP3 ADD MSTORE PUSH1 0x0 SWAP2 PUSH1 0x1 PUSH1 0x1 PUSH1 0xA0 SHL SUB AND SWAP1 PUSH4 0x70A08231 SWAP1 PUSH1 0x24 ADD PUSH1 0x20 PUSH1 0x40 MLOAD DUP1 DUP4 SUB DUP2 DUP7 GAS STATICCALL ISZERO DUP1 ISZERO PUSH2 0xCF0 JUMPI RETURNDATASIZE PUSH1 0x0 DUP1 RETURNDATACOPY RETURNDATASIZE PUSH1 0x0 REVERT JUMPDEST POP POP POP POP PUSH1 0x40 MLOAD RETURNDATASIZE PUSH1 0x1F NOT PUSH1 0x1F DUP3 ADD AND DUP3 ADD DUP1 PUSH1 0x40 MSTORE POP DUP2 ADD SWAP1 PUSH2 0xD14 SWAP2 SWAP1 PUSH2 0x18B7 JUMP JUMPDEST SWAP1 POP DUP1 ISZERO PUSH2 0x8C8 JUMPI PUSH2 0x8C8 PUSH2 0xD31 PUSH1 0x0 SLOAD PUSH1 0x1 PUSH1 0x1 PUSH1 0xA0 SHL SUB AND SWAP1 JUMP JUMPDEST PUSH1 0x3 SLOAD PUSH1 0x1 PUSH1 0x1 PUSH1 0xA0 SHL SUB AND SWAP1 DUP4 PUSH2 0x14A0 JUMP JUMPDEST PUSH2 0xD4C PUSH2 0x13D6 JUMP JUMPDEST PUSH1 0xA SLOAD PUSH1 0xFF AND PUSH2 0xD9E JUMPI PUSH1 0x40 MLOAD PUSH3 0x461BCD PUSH1 0xE5 SHL DUP2 MSTORE PUSH1 0x20 PUSH1 0x4 DUP3 ADD MSTORE PUSH1 0x17 PUSH1 0x24 DUP3 ADD MSTORE PUSH32 0x526566756E647320617265206E6F7420656E61626C6564000000000000000000 PUSH1 0x44 DUP3 ADD MSTORE PUSH1 0x64 ADD PUSH2 0x4D4 JUMP JUMPDEST CALLER PUSH1 0x0 SWAP1 DUP2 MSTORE PUSH1 0xE PUSH1 0x20 MSTORE PUSH1 0x40 SWAP1 KECCAK256 SLOAD PUSH2 0xDF2 JUMPI PUSH1 0x40 MLOAD PUSH3 0x461BCD PUSH1 0xE5 SHL DUP2 MSTORE PUSH1 0x20 PUSH1 0x4 DUP3 ADD MSTORE PUSH1 0x15 PUSH1 0x24 DUP3 ADD MSTORE PUSH21 0x139BC818DBDB9D1C9A589D5D1A5BDB88199BDD5B99 PUSH1 0x5A SHL PUSH1 0x44 DUP3 ADD MSTORE PUSH1 0x64 ADD PUSH2 0x4D4 JUMP JUMPDEST CALLER PUSH1 0x0 SWAP1 DUP2 MSTORE PUSH1 0xF PUSH1 0x20 MSTORE PUSH1 0x40 SWAP1 KECCAK256 SLOAD PUSH1 0xFF AND ISZERO PUSH2 0xE5E JUMPI PUSH1 0x40 MLOAD PUSH3 0x461BCD PUSH1 0xE5 SHL DUP2 MSTORE PUSH1 0x20 PUSH1 0x4 DUP3 ADD MSTORE PUSH1 0x23 PUSH1 0x24 DUP3 ADD MSTORE PUSH32 0x43616E6E6F7420726566756E6420616674657220636C61696D696E6720746F6B PUSH1 0x44 DUP3 ADD MSTORE PUSH3 0x656E73 PUSH1 0xE8 SHL PUSH1 0x64 DUP3 ADD MSTORE PUSH1 0x84 ADD PUSH2 0x4D4 JUMP JUMPDEST CALLER PUSH1 0x0 SWAP1 DUP2 MSTORE PUSH1 0x10 PUSH1 0x20 MSTORE PUSH1 0x40 SWAP1 KECCAK256 SLOAD PUSH1 0xFF AND ISZERO PUSH2 0xEB1 JUMPI PUSH1 0x40 MLOAD PUSH3 0x461BCD PUSH1 0xE5 SHL DUP2 MSTORE PUSH1 0x20 PUSH1 0x4 DUP3 ADD MSTORE PUSH1 0x10 PUSH1 0x24 DUP3 ADD MSTORE PUSH16 0x105B1C9958591E481C99599D5B991959 PUSH1 0x82 SHL PUSH1 0x44 DUP3 ADD MSTORE PUSH1 0x64 ADD PUSH2 0x4D4 JUMP JUMPDEST PUSH1 0xA SLOAD PUSH2 0x100 SWAP1 DIV PUSH1 0xFF AND PUSH2 0xF71 JUMPI PUSH1 0x9 SLOAD TIMESTAMP GT ISZERO PUSH2 0xF12 JUMPI PUSH1 0x40 MLOAD PUSH3 0x461BCD PUSH1 0xE5 SHL DUP2 MSTORE PUSH1 0x20 PUSH1 0x4 DUP3 ADD MSTORE PUSH1 0x17 PUSH1 0x24 DUP3 ADD MSTORE PUSH32 0x526566756E6420706572696F642068617320656E646564000000000000000000 PUSH1 0x44 DUP3 ADD MSTORE PUSH1 0x64 ADD PUSH2 0x4D4 JUMP JUMPDEST PUSH1 0x6 SLOAD PUSH1 0xC SLOAD LT DUP1 PUSH2 0xF25 JUMPI POP PUSH1 0x5 SLOAD TIMESTAMP GT JUMPDEST PUSH2 0xF71 JUMPI PUSH1 0x40 MLOAD PUSH3 0x461BCD PUSH1 0xE5 SHL DUP2 MSTORE PUSH1 0x20 PUSH1 0x4 DUP3 ADD MSTORE PUSH1 0x18 PUSH1 0x24 DUP3 ADD MSTORE PUSH32 0x526566756E6420636F6E646974696F6E206E6F74206D65740000000000000000 PUSH1 0x44 DUP3 ADD MSTORE PUSH1 0x64 ADD PUSH2 0x4D4 JUMP JUMPDEST CALLER PUSH1 0x0 DUP2 DUP2 MSTORE PUSH1 0xE PUSH1 0x20 SWAP1 DUP2 MSTORE PUSH1 0x40 DUP1 DUP4 KECCAK256 SLOAD PUSH1 0x10 SWAP1 SWAP3 MSTORE SWAP1 SWAP2 KECCAK256 DUP1 SLOAD PUSH1 0xFF NOT AND PUSH1 0x1 OR SWAP1 SSTORE PUSH1 0x3 SLOAD SWAP1 SWAP2 PUSH2 0xFB0 SWAP2 PUSH1 0x1 PUSH1 0x1 PUSH1 0xA0 SHL SUB AND SWAP1 DUP4 PUSH2 0x14A0 JUMP JUMPDEST PUSH1 0x40 MLOAD DUP2 DUP2 MSTORE CALLER SWAP1 PUSH32 0xA171B6942063C6F2800CE40A780EDCE37BAA2B618571B11EEDD1E69E626E7D76 SWAP1 PUSH1 0x20 ADD PUSH1 0x40 MLOAD DUP1 SWAP2 SUB SWAP1 LOG2 POP PUSH2 0xA78 PUSH1 0x1 DUP1 SSTORE JUMP JUMPDEST PUSH2 0xFF7 PUSH2 0x137C JUMP JUMPDEST PUSH1 0x5 SLOAD TIMESTAMP GT PUSH2 0x1018 JUMPI PUSH1 0x40 MLOAD PUSH3 0x461BCD PUSH1 0xE5 SHL DUP2 MSTORE PUSH1 0x4 ADD PUSH2 0x4D4 SWAP1 PUSH2 0x1888 JUMP JUMPDEST PUSH1 0xB SLOAD PUSH1 0x2 SLOAD PUSH1 0x40 MLOAD PUSH4 0x70A08231 PUSH1 0xE0 SHL DUP2 MSTORE ADDRESS PUSH1 0x4 DUP3 ADD MSTORE PUSH1 0x0 SWAP3 SWAP2 PUSH1 0x1 PUSH1 0x1 PUSH1 0xA0 SHL SUB AND SWAP1 PUSH4 0x70A08231 SWAP1 PUSH1 0x24 ADD PUSH1 0x20 PUSH1 0x40 MLOAD DUP1 DUP4 SUB DUP2 DUP7 GAS STATICCALL ISZERO DUP1 ISZERO PUSH2 0x1065 JUMPI RETURNDATASIZE PUSH1 0x0 DUP1 RETURNDATACOPY RETURNDATASIZE PUSH1 0x0 REVERT JUMPDEST POP POP POP POP PUSH1 0x40 MLOAD RETURNDATASIZE PUSH1 0x1F NOT PUSH1 0x1F DUP3 ADD AND DUP3 ADD DUP1 PUSH1 0x40 MSTORE POP DUP2 ADD SWAP1 PUSH2 0x1089 SWAP2 SWAP1 PUSH2 0x18B7 JUMP JUMPDEST PUSH2 0x1093 SWAP2 SWAP1 PUSH2 0x18D0 JUMP JUMPDEST SWAP1 POP DUP1 ISZERO PUSH2 0x8C8 JUMPI PUSH2 0x8C8 PUSH2 0x10B0 PUSH1 0x0 SLOAD PUSH1 0x1 PUSH1 0x1 PUSH1 0xA0 SHL SUB AND SWAP1 JUMP JUMPDEST PUSH1 0x2 SLOAD PUSH1 0x1 PUSH1 0x1 PUSH1 0xA0 SHL SUB AND SWAP1 DUP4 PUSH2 0x14A0 JUMP JUMPDEST PUSH2 0x10CB PUSH2 0x137C JUMP JUMPDEST PUSH1 0x5 SLOAD TIMESTAMP LT ISZERO PUSH2 0x10ED JUMPI PUSH1 0x40 MLOAD PUSH3 0x461BCD PUSH1 0xE5 SHL DUP2 MSTORE PUSH1 0x4 ADD PUSH2 0x4D4 SWAP1 PUSH2 0x1888 JUMP JUMPDEST PUSH1 0x6 SLOAD PUSH1 0xC SLOAD LT ISZERO PUSH2 0x1138 JUMPI PUSH1 0x40 MLOAD PUSH3 0x461BCD PUSH1 0xE5 SHL DUP2 MSTORE PUSH1 0x20 PUSH1 0x4 DUP3 ADD MSTORE PUSH1 0x14 PUSH1 0x24 DUP3 ADD MSTORE PUSH20 0x14DBD99D0818D85C081B9BDD081C995858DA1959 PUSH1 0x62 SHL PUSH1 0x44 DUP3 ADD MSTORE PUSH1 0x64 ADD PUSH2 0x4D4 JUMP JUMPDEST PUSH1 0xA SLOAD PUSH2 0x100 SWAP1 DIV PUSH1 0xFF AND ISZERO PUSH2 0x11B6 JUMPI PUSH1 0x40 MLOAD PUSH3 0x461BCD PUSH1 0xE5 SHL DUP2 MSTORE PUSH1 0x20 PUSH1 0x4 DUP3 ADD MSTORE PUSH1 0x38 PUSH1 0x24 DUP3 ADD MSTORE PUSH32 0x43616E6E6F7420656E61626C6520746F6B656E20636C61696D73207768656E20 PUSH1 0x44 DUP3 ADD MSTORE PUSH32 0x676C6F62616C20726566756E6420697320656E61626C65640000000000000000 PUSH1 0x64 DUP3 ADD MSTORE PUSH1 0x84 ADD PUSH2 0x4D4 JUMP JUMPDEST PUSH1 0xD DUP1 SLOAD PUSH1 0xFF NOT SWAP1 DUP2 AND PUSH1 0x1 OR SWAP1 SWAP2 SSTORE PUSH1 0xA DUP1 SLOAD SWAP1 SWAP2 AND SWAP1 SSTORE PUSH1 0x40 MLOAD PUSH32 0x923DE0A3621B0EDD895D821EB5B692CCF447B9D07B758DD0C535E1D2951F741A SWAP1 PUSH1 0x0 SWAP1 LOG1 JUMP JUMPDEST PUSH2 0x1202 PUSH2 0x137C JUMP JUMPDEST PUSH1 0x1 PUSH1 0x1 PUSH1 0xA0 SHL SUB DUP2 AND PUSH2 0x1267 JUMPI PUSH1 0x40 MLOAD PUSH3 0x461BCD PUSH1 0xE5 SHL DUP2 MSTORE PUSH1 0x20 PUSH1 0x4 DUP3 ADD MSTORE PUSH1 0x26 PUSH1 0x24 DUP3 ADD MSTORE PUSH32 0x4F776E61626C653A206E6577206F776E657220697320746865207A65726F2061 PUSH1 0x44 DUP3 ADD MSTORE PUSH6 0x646472657373 PUSH1 0xD0 SHL PUSH1 0x64 DUP3 ADD MSTORE PUSH1 0x84 ADD PUSH2 0x4D4 JUMP JUMPDEST PUSH2 0x8C8 DUP2 PUSH2 0x14D5 JUMP JUMPDEST PUSH2 0x1278 PUSH2 0x137C JUMP JUMPDEST PUSH1 0x0 PUSH1 0x4 SLOAD GT PUSH2 0x12BC JUMPI PUSH1 0x40 MLOAD PUSH3 0x461BCD PUSH1 0xE5 SHL DUP2 MSTORE PUSH1 0x20 PUSH1 0x4 DUP3 ADD MSTORE PUSH1 0xF PUSH1 0x24 DUP3 ADD MSTORE PUSH15 0x125113C81B9BDD081CDD185C9D1959 PUSH1 0x8A SHL PUSH1 0x44 DUP3 ADD MSTORE PUSH1 0x64 ADD PUSH2 0x4D4 JUMP JUMPDEST PUSH1 0x4 SLOAD TIMESTAMP LT ISZERO PUSH2 0x1308 JUMPI PUSH1 0x40 MLOAD PUSH3 0x461BCD PUSH1 0xE5 SHL DUP2 MSTORE PUSH1 0x20 PUSH1 0x4 DUP3 ADD MSTORE PUSH1 0x17 PUSH1 0x24 DUP3 ADD MSTORE PUSH23 0x125113C81A185CC81B9BDD081CDD185C9D1959081E595D PUSH1 0x4A SHL PUSH1 0x44 DUP3 ADD MSTORE PUSH1 0x64 ADD PUSH2 0x4D4 JUMP JUMPDEST PUSH1 0x5 SLOAD TIMESTAMP LT PUSH2 0x134D JUMPI PUSH1 0x40 MLOAD PUSH3 0x461BCD PUSH1 0xE5 SHL DUP2 MSTORE PUSH1 0x20 PUSH1 0x4 DUP3 ADD MSTORE PUSH1 0x11 PUSH1 0x24 DUP3 ADD MSTORE PUSH17 0x125113C8185B1C9958591E48195B991959 PUSH1 0x7A SHL PUSH1 0x44 DUP3 ADD MSTORE PUSH1 0x64 ADD PUSH2 0x4D4 JUMP JUMPDEST TIMESTAMP PUSH1 0x5 SSTORE PUSH1 0x40 MLOAD PUSH32 0x2EF24E13D793DB1255118D8F26411F631EFEA7FC2DEBF72122C1A943835A7DCD SWAP1 PUSH1 0x0 SWAP1 LOG1 JUMP JUMPDEST PUSH1 0x0 SLOAD PUSH1 0x1 PUSH1 0x1 PUSH1 0xA0 SHL SUB AND CALLER EQ PUSH2 0xA78 JUMPI PUSH1 0x40 MLOAD PUSH3 0x461BCD PUSH1 0xE5 SHL DUP2 MSTORE PUSH1 0x20 PUSH1 0x4 DUP3 ADD DUP2 SWAP1 MSTORE PUSH1 0x24 DUP3 ADD MSTORE PUSH32 0x4F776E61626C653A2063616C6C6572206973206E6F7420746865206F776E6572 PUSH1 0x44 DUP3 ADD MSTORE PUSH1 0x64 ADD PUSH2 0x4D4 JUMP JUMPDEST PUSH1 0x2 PUSH1 0x1 SLOAD SUB PUSH2 0x1428 JUMPI PUSH1 0x40 MLOAD PUSH3 0x461BCD PUSH1 0xE5 SHL DUP2 MSTORE PUSH1 0x20 PUSH1 0x4 DUP3 ADD MSTORE PUSH1 0x1F PUSH1 0x24 DUP3 ADD MSTORE PUSH32 0x5265656E7472616E637947756172643A207265656E7472616E742063616C6C00 PUSH1 0x44 DUP3 ADD MSTORE PUSH1 0x64 ADD PUSH2 0x4D4 JUMP JUMPDEST PUSH1 0x2 PUSH1 0x1 SSTORE JUMP JUMPDEST PUSH1 0x40 MLOAD PUSH1 0x1 PUSH1 0x1 PUSH1 0xA0 SHL SUB DUP1 DUP6 AND PUSH1 0x24 DUP4 ADD MSTORE DUP4 AND PUSH1 0x44 DUP3 ADD MSTORE PUSH1 0x64 DUP2 ADD DUP3 SWAP1 MSTORE PUSH2 0x149A SWAP1 DUP6 SWAP1 PUSH4 0x23B872DD PUSH1 0xE0 SHL SWAP1 PUSH1 0x84 ADD JUMPDEST PUSH1 0x40 DUP1 MLOAD PUSH1 0x1F NOT DUP2 DUP5 SUB ADD DUP2 MSTORE SWAP2 SWAP1 MSTORE PUSH1 0x20 DUP2 ADD DUP1 MLOAD PUSH1 0x1 PUSH1 0x1 PUSH1 0xE0 SHL SUB AND PUSH1 0x1 PUSH1 0x1 PUSH1 0xE0 SHL SUB NOT SWAP1 SWAP4 AND SWAP3 SWAP1 SWAP3 OR SWAP1 SWAP2 MSTORE PUSH2 0x1525 JUMP JUMPDEST POP POP POP POP JUMP JUMPDEST PUSH1 0x40 MLOAD PUSH1 0x1 PUSH1 0x1 PUSH1 0xA0 SHL SUB DUP4 AND PUSH1 0x24 DUP3 ADD MSTORE PUSH1 0x44 DUP2 ADD DUP3 SWAP1 MSTORE PUSH2 0x14D0 SWAP1 DUP5 SWAP1 PUSH4 0xA9059CBB PUSH1 0xE0 SHL SWAP1 PUSH1 0x64 ADD PUSH2 0x1463 JUMP JUMPDEST POP POP POP JUMP JUMPDEST PUSH1 0x0 DUP1 SLOAD PUSH1 0x1 PUSH1 0x1 PUSH1 0xA0 SHL SUB DUP4 DUP2 AND PUSH1 0x1 PUSH1 0x1 PUSH1 0xA0 SHL SUB NOT DUP4 AND DUP2 OR DUP5 SSTORE PUSH1 0x40 MLOAD SWAP2 SWAP1 SWAP3 AND SWAP3 DUP4 SWAP2 PUSH32 0x8BE0079C531659141344CD1FD0A4F28419497F9722A3DAAFE3B4186F6B6457E0 SWAP2 SWAP1 LOG3 POP POP JUMP JUMPDEST PUSH1 0x0 PUSH2 0x157A DUP3 PUSH1 0x40 MLOAD DUP1 PUSH1 0x40 ADD PUSH1 0x40 MSTORE DUP1 PUSH1 0x20 DUP2 MSTORE PUSH1 0x20 ADD PUSH32 0x5361666545524332303A206C6F772D6C6576656C2063616C6C206661696C6564 DUP2 MSTORE POP DUP6 PUSH1 0x1 PUSH1 0x1 PUSH1 0xA0 SHL SUB AND PUSH2 0x15FA SWAP1 SWAP3 SWAP2 SWAP1 PUSH4 0xFFFFFFFF AND JUMP JUMPDEST SWAP1 POP DUP1 MLOAD PUSH1 0x0 EQ DUP1 PUSH2 0x159B JUMPI POP DUP1 DUP1 PUSH1 0x20 ADD SWAP1 MLOAD DUP2 ADD SWAP1 PUSH2 0x159B SWAP2 SWAP1 PUSH2 0x18E3 JUMP JUMPDEST PUSH2 0x14D0 JUMPI PUSH1 0x40 MLOAD PUSH3 0x461BCD PUSH1 0xE5 SHL DUP2 MSTORE PUSH1 0x20 PUSH1 0x4 DUP3 ADD MSTORE PUSH1 0x2A PUSH1 0x24 DUP3 ADD MSTORE PUSH32 0x5361666545524332303A204552433230206F7065726174696F6E20646964206E PUSH1 0x44 DUP3 ADD MSTORE PUSH10 0x1BDD081CDD58D8D95959 PUSH1 0xB2 SHL PUSH1 0x64 DUP3 ADD MSTORE PUSH1 0x84 ADD PUSH2 0x4D4 JUMP JUMPDEST PUSH1 0x60 PUSH2 0x1609 DUP5 DUP5 PUSH1 0x0 DUP6 PUSH2 0x1611 JUMP JUMPDEST SWAP5 SWAP4 POP POP POP POP JUMP JUMPDEST PUSH1 0x60 DUP3 SELFBALANCE LT ISZERO PUSH2 0x1672 JUMPI PUSH1 0x40 MLOAD PUSH3 0x461BCD PUSH1 0xE5 SHL DUP2 MSTORE PUSH1 0x20 PUSH1 0x4 DUP3 ADD MSTORE PUSH1 0x26 PUSH1 0x24 DUP3 ADD MSTORE PUSH32 0x416464726573733A20696E73756666696369656E742062616C616E636520666F PUSH1 0x44 DUP3 ADD MSTORE PUSH6 0x1C8818D85B1B PUSH1 0xD2 SHL PUSH1 0x64 DUP3 ADD MSTORE PUSH1 0x84 ADD PUSH2 0x4D4 JUMP JUMPDEST PUSH1 0x0 DUP1 DUP7 PUSH1 0x1 PUSH1 0x1 PUSH1 0xA0 SHL SUB AND DUP6 DUP8 PUSH1 0x40 MLOAD PUSH2 0x168E SWAP2 SWAP1 PUSH2 0x1924 JUMP JUMPDEST PUSH1 0x0 PUSH1 0x40 MLOAD DUP1 DUP4 SUB DUP2 DUP6 DUP8 GAS CALL SWAP3 POP POP POP RETURNDATASIZE DUP1 PUSH1 0x0 DUP2 EQ PUSH2 0x16CB JUMPI PUSH1 0x40 MLOAD SWAP2 POP PUSH1 0x1F NOT PUSH1 0x3F RETURNDATASIZE ADD AND DUP3 ADD PUSH1 0x40 MSTORE RETURNDATASIZE DUP3 MSTORE RETURNDATASIZE PUSH1 0x0 PUSH1 0x20 DUP5 ADD RETURNDATACOPY PUSH2 0x16D0 JUMP JUMPDEST PUSH1 0x60 SWAP2 POP JUMPDEST POP SWAP2 POP SWAP2 POP PUSH2 0x16E1 DUP8 DUP4 DUP4 DUP8 PUSH2 0x16EC JUMP JUMPDEST SWAP8 SWAP7 POP POP POP POP POP POP POP JUMP JUMPDEST PUSH1 0x60 DUP4 ISZERO PUSH2 0x175B JUMPI DUP3 MLOAD PUSH1 0x0 SUB PUSH2 0x1754 JUMPI PUSH1 0x1 PUSH1 0x1 PUSH1 0xA0 SHL SUB DUP6 AND EXTCODESIZE PUSH2 0x1754 JUMPI PUSH1 0x40 MLOAD PUSH3 0x461BCD PUSH1 0xE5 SHL DUP2 MSTORE PUSH1 0x20 PUSH1 0x4 DUP3 ADD MSTORE PUSH1 0x1D PUSH1 0x24 DUP3 ADD MSTORE PUSH32 0x416464726573733A2063616C6C20746F206E6F6E2D636F6E7472616374000000 PUSH1 0x44 DUP3 ADD MSTORE PUSH1 0x64 ADD PUSH2 0x4D4 JUMP JUMPDEST POP DUP2 PUSH2 0x1609 JUMP JUMPDEST PUSH2 0x1609 DUP4 DUP4 DUP2 MLOAD ISZERO PUSH2 0x1770 JUMPI DUP2 MLOAD DUP1 DUP4 PUSH1 0x20 ADD REVERT JUMPDEST DUP1 PUSH1 0x40 MLOAD PUSH3 0x461BCD PUSH1 0xE5 SHL DUP2 MSTORE PUSH1 0x4 ADD PUSH2 0x4D4 SWAP2 SWAP1 PUSH2 0x1940 JUMP JUMPDEST PUSH1 0x0 DUP1 PUSH1 0x40 DUP4 DUP6 SUB SLT ISZERO PUSH2 0x179D JUMPI PUSH1 0x0 DUP1 REVERT JUMPDEST POP POP DUP1 CALLDATALOAD SWAP3 PUSH1 0x20 SWAP1 SWAP2 ADD CALLDATALOAD SWAP2 POP JUMP JUMPDEST PUSH1 0x0 PUSH1 0x20 DUP3 DUP5 SUB SLT ISZERO PUSH2 0x17BE JUMPI PUSH1 0x0 DUP1 REVERT JUMPDEST DUP2 CALLDATALOAD PUSH1 0x1 PUSH1 0x1 PUSH1 0xA0 SHL SUB DUP2 AND DUP2 EQ PUSH2 0x17D5 JUMPI PUSH1 0x0 DUP1 REVERT JUMPDEST SWAP4 SWAP3 POP POP POP JUMP JUMPDEST DUP1 ISZERO ISZERO DUP2 EQ PUSH2 0x8C8 JUMPI PUSH1 0x0 DUP1 REVERT JUMPDEST PUSH1 0x0 PUSH1 0x20 DUP3 DUP5 SUB SLT ISZERO PUSH2 0x17FC JUMPI PUSH1 0x0 DUP1 REVERT JUMPDEST DUP2 CALLDATALOAD PUSH2 0x17D5 DUP2 PUSH2 0x17DC JUMP JUMPDEST PUSH1 0x0 PUSH1 0x20 DUP3 DUP5 SUB SLT ISZERO PUSH2 0x1819 JUMPI PUSH1 0x0 DUP1 REVERT JUMPDEST POP CALLDATALOAD SWAP2 SWAP1 POP JUMP JUMPDEST PUSH4 0x4E487B71 PUSH1 0xE0 SHL PUSH1 0x0 MSTORE PUSH1 0x11 PUSH1 0x4 MSTORE PUSH1 0x24 PUSH1 0x0 REVERT JUMPDEST DUP1 DUP3 ADD DUP1 DUP3 GT ISZERO PUSH2 0x1849 JUMPI PUSH2 0x1849 PUSH2 0x1820 JUMP JUMPDEST SWAP3 SWAP2 POP POP JUMP JUMPDEST DUP1 DUP3 MUL DUP2 ISZERO DUP3 DUP3 DIV DUP5 EQ OR PUSH2 0x1849 JUMPI PUSH2 0x1849 PUSH2 0x1820 JUMP JUMPDEST PUSH1 0x0 DUP3 PUSH2 0x1883 JUMPI PUSH4 0x4E487B71 PUSH1 0xE0 SHL PUSH1 0x0 MSTORE PUSH1 0x12 PUSH1 0x4 MSTORE PUSH1 0x24 PUSH1 0x0 REVERT JUMPDEST POP DIV SWAP1 JUMP JUMPDEST PUSH1 0x20 DUP1 DUP3 MSTORE PUSH1 0x15 SWAP1 DUP3 ADD MSTORE PUSH21 0x125113C81A185CC81B9BDD08195B991959081E595D PUSH1 0x5A SHL PUSH1 0x40 DUP3 ADD MSTORE PUSH1 0x60 ADD SWAP1 JUMP JUMPDEST PUSH1 0x0 PUSH1 0x20 DUP3 DUP5 SUB SLT ISZERO PUSH2 0x18C9 JUMPI PUSH1 0x0 DUP1 REVERT JUMPDEST POP MLOAD SWAP2 SWAP1 POP JUMP JUMPDEST DUP2 DUP2 SUB DUP2 DUP2 GT ISZERO PUSH2 0x1849 JUMPI PUSH2 0x1849 PUSH2 0x1820 JUMP JUMPDEST PUSH1 0x0 PUSH1 0x20 DUP3 DUP5 SUB SLT ISZERO PUSH2 0x18F5 JUMPI PUSH1 0x0 DUP1 REVERT JUMPDEST DUP2 MLOAD PUSH2 0x17D5 DUP2 PUSH2 0x17DC JUMP JUMPDEST PUSH1 0x0 JUMPDEST DUP4 DUP2 LT ISZERO PUSH2 0x191B JUMPI DUP2 DUP2 ADD MLOAD DUP4 DUP3 ADD MSTORE PUSH1 0x20 ADD PUSH2 0x1903 JUMP JUMPDEST POP POP PUSH1 0x0 SWAP2 ADD MSTORE JUMP JUMPDEST PUSH1 0x0 DUP3 MLOAD PUSH2 0x1936 DUP2 DUP5 PUSH1 0x20 DUP8 ADD PUSH2 0x1900 JUMP JUMPDEST SWAP2 SWAP1 SWAP2 ADD SWAP3 SWAP2 POP POP JUMP JUMPDEST PUSH1 0x20 DUP2 MSTORE PUSH1 0x0 DUP3 MLOAD DUP1 PUSH1 0x20 DUP5 ADD MSTORE PUSH2 0x195F DUP2 PUSH1 0x40 DUP6 ADD PUSH1 0x20 DUP8 ADD PUSH2 0x1900 JUMP JUMPDEST PUSH1 0x1F ADD PUSH1 0x1F NOT AND SWAP2 SWAP1 SWAP2 ADD PUSH1 0x40 ADD SWAP3 SWAP2 POP POP JUMP INVALID LOG2 PUSH5 0x6970667358 0x22 SLT KECCAK256 0xEF 0xC5 SAR 0xD PUSH5 0xB668A1951D 0xC2 0xAE PUSH24 0x1F3959FD8F95E80C0CDDB7EADC218DE13F8FA364736F6C63 NUMBER STOP ADDMOD EQ STOP CALLER "},"methodIdentifiers":{"buyTokens(uint256)":"3610724e","claimRefund()":"b5545a3c","claimTokens()":"48c54b9d","contributions(address)":"42e94c90","enableGlobalRefund()":"0302f2ce","enableTokenClaims()":"e72f98e1","endIDO()":"faad0fc1","endTime()":"3197cbb6","getIDOInfo()":"66a4559b","getUserInfo(address)":"6386c1c7","globalRefundEnabled()":"0e6cac51","hardCap()":"fb86a404","hasClaimed(address)":"73b2e80e","hasRefunded(address)":"2b6b0633","idoToken()":"d6cd82bc","owner()":"8da5cb5b","paymentToken()":"3013ce29","refundEndTime()":"73fddd16","refundsEnabled()":"532f1179","renounceOwnership()":"715018a6","setRefundWindow(uint256)":"8c5d80dd","setRefundsEnabled(bool)":"30767d09","softCap()":"906a26e0","startIDO(uint256,uint256)":"0e294700","startTime()":"78e97925","tokenPrice()":"7ff9b596","tokensClaimable()":"31f684c0","totalPaymentCollected()":"8e1ee99d","totalTokensSold()":"63b20117","transferOwnership(address)":"f2fde38b","withdrawCollectedPayments()":"b4a30910","withdrawUnsoldTokens()":"c8bdbfb6"}}}}}