{
  "_format": "hh-sol-artifact-1",
  "contractName": "IDOPool",
  "sourceName": "contracts/IDOPool.sol",
  "abi": [
    {
      "inputs": [
        {
          "internalType": "address",
          "name": "_idoToken",
          "type": "address"
        },
        {
          "internalType": "address",
          "name": "_paymentToken",
          "type": "address"
        },
        {
          "internalType": "uint256",
          "name": "_tokenPrice",
          "type": "uint256"
        },
        {
          "internalType": "uint256",
          "name": "_softCap",
          "type": "uint256"
        },
        {
          "internalType": "uint256",
          "name": "_hardCap",
          "type": "uint256"
        }
      ],
      "stateMutability": "nonpayable",
      "type": "constructor"
    },
    {
      "anonymous": false,
      "inputs": [],
      "name": "GlobalRefundEnabled",
      "type": "event"
    },
    {
      "anonymous": false,
      "inputs": [],
      "name": "IDOEnded",
      "type": "event"
    },
    {
      "anonymous": false,
      "inputs": [
        {
          "indexed": false,
          "internalType": "uint256",
          "name": "startTime",
          "type": "uint256"
        },
        {
          "indexed": false,
          "internalType": "uint256",
          "name": "endTime",
          "type": "uint256"
        }
      ],
      "name": "IDOStarted",
      "type": "event"
    },
    {
      "anonymous": false,
      "inputs": [
        {
          "indexed": true,
          "internalType": "address",
          "name": "previousOwner",
          "type": "address"
        },
        {
          "indexed": true,
          "internalType": "address",
          "name": "newOwner",
          "type": "address"
        }
      ],
      "name": "OwnershipTransferred",
      "type": "event"
    },
    {
      "anonymous": false,
      "inputs": [
        {
          "indexed": true,
          "internalType": "address",
          "name": "user",
          "type": "address"
        },
        {
          "indexed": false,
          "internalType": "uint256",
          "name": "amount",
          "type": "uint256"
        }
      ],
      "name": "RefundIssued",
      "type": "event"
    },
    {
      "anonymous": false,
      "inputs": [],
      "name": "TokensClaimable",
      "type": "event"
    },
    {
      "anonymous": false,
      "inputs": [
        {
          "indexed": true,
          "internalType": "address",
          "name": "claimer",
          "type": "address"
        },
        {
          "indexed": false,
          "internalType": "uint256",
          "name": "tokenAmount",
          "type": "uint256"
        }
      ],
      "name": "TokensClaimed",
      "type": "event"
    },
    {
      "anonymous": false,
      "inputs": [
        {
          "indexed": true,
          "internalType": "address",
          "name": "buyer",
          "type": "address"
        },
        {
          "indexed": false,
          "internalType": "uint256",
          "name": "paymentAmount",
          "type": "uint256"
        },
        {
          "indexed": false,
          "internalType": "uint256",
          "name": "tokenAmount",
          "type": "uint256"
        }
      ],
      "name": "TokensPurchased",
      "type": "event"
    },
    {
      "inputs": [
        {
          "internalType": "uint256",
          "name": "amount",
          "type": "uint256"
        }
      ],
      "name": "buyTokens",
      "outputs": [],
      "stateMutability": "nonpayable",
      "type": "function"
    },
    {
      "inputs": [],
      "name": "claimRefund",
      "outputs": [],
      "stateMutability": "nonpayable",
      "type": "function"
    },
    {
      "inputs": [],
      "name": "claimTokens",
      "outputs": [],
      "stateMutability": "nonpayable",
      "type": "function"
    },
    {
      "inputs": [
        {
          "internalType": "address",
          "name": "",
          "type": "address"
        }
      ],
      "name": "contributions",
      "outputs": [
        {
          "internalType": "uint256",
          "name": "",
          "type": "uint256"
        }
      ],
      "stateMutability": "view",
      "type": "function"
    },
    {
      "inputs": [],
      "name": "enableGlobalRefund",
      "outputs": [],
      "stateMutability": "nonpayable",
      "type": "function"
    },
    {
      "inputs": [],
      "name": "enableTokenClaims",
      "outputs": [],
      "stateMutability": "nonpayable",
      "type": "function"
    },
    {
      "inputs": [],
      "name": "endIDO",
      "outputs": [],
      "stateMutability": "nonpayable",
      "type": "function"
    },
    {
      "inputs": [],
      "name": "endTime",
      "outputs": [
        {
          "internalType": "uint256",
          "name": "",
          "type": "uint256"
        }
      ],
      "stateMutability": "view",
      "type": "function"
    },
    {
      "inputs": [],
      "name": "getIDOInfo",
      "outputs": [
        {
          "internalType": "uint256",
          "name": "_startTime",
          "type": "uint256"
        },
        {
          "internalType": "uint256",
          "name": "_endTime",
          "type": "uint256"
        },
        {
          "internalType": "uint256",
          "name": "_softCap",
          "type": "uint256"
        },
        {
          "internalType": "uint256",
          "name": "_hardCap",
          "type": "uint256"
        },
        {
          "internalType": "uint256",
          "name": "_totalPaymentCollected",
          "type": "uint256"
        },
        {
          "internalType": "bool",
          "name": "_tokensClaimable",
          "type": "bool"
        },
        {
          "internalType": "bool",
          "name": "_refundsEnabled",
          "type": "bool"
        }
      ],
      "stateMutability": "view",
      "type": "function"
    },
    {
      "inputs": [
        {
          "internalType": "address",
          "name": "user",
          "type": "address"
        }
      ],
      "name": "getUserInfo",
      "outputs": [
        {
          "internalType": "uint256",
          "name": "contribution",
          "type": "uint256"
        },
        {
          "internalType": "uint256",
          "name": "tokenAmount",
          "type": "uint256"
        },
        {
          "internalType": "bool",
          "name": "claimed",
          "type": "bool"
        },
        {
          "internalType": "bool",
          "name": "refunded",
          "type": "bool"
        }
      ],
      "stateMutability": "view",
      "type": "function"
    },
    {
      "inputs": [],
      "name": "globalRefundEnabled",
      "outputs": [
        {
          "internalType": "bool",
          "name": "",
          "type": "bool"
        }
      ],
      "stateMutability": "view",
      "type": "function"
    },
    {
      "inputs": [],
      "name": "hardCap",
      "outputs": [
        {
          "internalType": "uint256",
          "name": "",
          "type": "uint256"
        }
      ],
      "stateMutability": "view",
      "type": "function"
    },
    {
      "inputs": [
        {
          "internalType": "address",
          "name": "",
          "type": "address"
        }
      ],
      "name": "hasClaimed",
      "outputs": [
        {
          "internalType": "bool",
          "name": "",
          "type": "bool"
        }
      ],
      "stateMutability": "view",
      "type": "function"
    },
    {
      "inputs": [
        {
          "internalType": "address",
          "name": "",
          "type": "address"
        }
      ],
      "name": "hasRefunded",
      "outputs": [
        {
          "internalType": "bool",
          "name": "",
          "type": "bool"
        }
      ],
      "stateMutability": "view",
      "type": "function"
    },
    {
      "inputs": [],
      "name": "idoToken",
      "outputs": [
        {
          "internalType": "contract IERC20",
          "name": "",
          "type": "address"
        }
      ],
      "stateMutability": "view",
      "type": "function"
    },
    {
      "inputs": [],
      "name": "owner",
      "outputs": [
        {
          "internalType": "address",
          "name": "",
          "type": "address"
        }
      ],
      "stateMutability": "view",
      "type": "function"
    },
    {
      "inputs": [],
      "name": "paymentToken",
      "outputs": [
        {
          "internalType": "contract IERC20",
          "name": "",
          "type": "address"
        }
      ],
      "stateMutability": "view",
      "type": "function"
    },
    {
      "inputs": [],
      "name": "refundEndTime",
      "outputs": [
        {
          "internalType": "uint256",
          "name": "",
          "type": "uint256"
        }
      ],
      "stateMutability": "view",
      "type": "function"
    },
    {
      "inputs": [],
      "name": "refundsEnabled",
      "outputs": [
        {
          "internalType": "bool",
          "name": "",
          "type": "bool"
        }
      ],
      "stateMutability": "view",
      "type": "function"
    },
    {
      "inputs": [],
      "name": "renounceOwnership",
      "outputs": [],
      "stateMutability": "nonpayable",
      "type": "function"
    },
    {
      "inputs": [
        {
          "internalType": "uint256",
          "name": "_refundEndTime",
          "type": "uint256"
        }
      ],
      "name": "setRefundWindow",
      "outputs": [],
      "stateMutability": "nonpayable",
      "type": "function"
    },
    {
      "inputs": [
        {
          "internalType": "bool",
          "name": "_refundsEnabled",
          "type": "bool"
        }
      ],
      "name": "setRefundsEnabled",
      "outputs": [],
      "stateMutability": "nonpayable",
      "type": "function"
    },
    {
      "inputs": [],
      "name": "softCap",
      "outputs": [
        {
          "internalType": "uint256",
          "name": "",
          "type": "uint256"
        }
      ],
      "stateMutability": "view",
      "type": "function"
    },
    {
      "inputs": [
        {
          "internalType": "uint256",
          "name": "_startTime",
          "type": "uint256"
        },
        {
          "internalType": "uint256",
          "name": "_endTime",
          "type": "uint256"
        }
      ],
      "name": "startIDO",
      "outputs": [],
      "stateMutability": "nonpayable",
      "type": "function"
    },
    {
      "inputs": [],
      "name": "startTime",
      "outputs": [
        {
          "internalType": "uint256",
          "name": "",
          "type": "uint256"
        }
      ],
      "stateMutability": "view",
      "type": "function"
    },
    {
      "inputs": [],
      "name": "tokenPrice",
      "outputs": [
        {
          "internalType": "uint256",
          "name": "",
          "type": "uint256"
        }
      ],
      "stateMutability": "view",
      "type": "function"
    },
    {
      "inputs": [],
      "name": "tokensClaimable",
      "outputs": [
        {
          "internalType": "bool",
          "name": "",
          "type": "bool"
        }
      ],
      "stateMutability": "view",
      "type": "function"
    },
    {
      "inputs": [],
      "name": "totalPaymentCollected",
      "outputs": [
        {
          "internalType": "uint256",
          "name": "",
          "type": "uint256"
        }
      ],
      "stateMutability": "view",
      "type": "function"
    },
    {
      "inputs": [],
      "name": "totalTokensSold",
      "outputs": [
        {
          "internalType": "uint256",
          "name": "",
          "type": "uint256"
        }
      ],
      "stateMutability": "view",
      "type": "function"
    },
    {
      "inputs": [
        {
          "internalType": "address",
          "name": "newOwner",
          "type": "address"
        }
      ],
      "name": "transferOwnership",
      "outputs": [],
      "stateMutability": "nonpayable",
      "type": "function"
    },
    {
      "inputs": [],
      "name": "withdrawCollectedPayments",
      "outputs": [],
      "stateMutability": "nonpayable",
      "type": "function"
    },
    {
      "inputs": [],
      "name": "withdrawUnsoldTokens",
      "outputs": [],
      "stateMutability": "nonpayable",
      "type": "function"
    }
  ],
  "bytecode": "0x60806040523480156200001157600080fd5b5060405162001e9038038062001e9083398101604081905262000034916200046a565b336200004081620003fd565b6200004b81620003fd565b50600180556001600160a01b038516620000ac5760405162461bcd60e51b815260206004820152601960248201527f496e76616c69642049444f20746f6b656e20616464726573730000000000000060448201526064015b60405180910390fd5b6001600160a01b038416620001045760405162461bcd60e51b815260206004820152601d60248201527f496e76616c6964207061796d656e7420746f6b656e20616464726573730000006044820152606401620000a3565b60008311620001615760405162461bcd60e51b815260206004820152602260248201527f546f6b656e207072696365206d7573742062652067726561746572207468616e604482015261020360f41b6064820152608401620000a3565b60008211620001b35760405162461bcd60e51b815260206004820152601f60248201527f536f667420636170206d7573742062652067726561746572207468616e2030006044820152606401620000a3565b81811015620002205760405162461bcd60e51b815260206004820152603260248201527f4861726420636170206d7573742062652067726561746572207468616e206f72604482015271020657175616c20746f20736f6674206361760741b6064820152608401620000a3565b846001600160a01b03166318160ddd6040518163ffffffff1660e01b8152600401602060405180830381865afa9250505080156200027d575060408051601f3d908101601f191682019092526200027a91810190620004bd565b60015b620002e05760405162461bcd60e51b815260206004820152602c60248201527f49444f20746f6b656e20646f6573206e6f7420636f6e666f726d20746f20455260448201526b10cc8c081cdd185b99185c9960a21b6064820152608401620000a3565b50836001600160a01b03166318160ddd6040518163ffffffff1660e01b8152600401602060405180830381865afa9250505080156200033e575060408051601f3d908101601f191682019092526200033b91810190620004bd565b60015b620003a55760405162461bcd60e51b815260206004820152603060248201527f5061796d656e7420746f6b656e20646f6573206e6f7420636f6e666f726d207460448201526f1bc8115490cc8c081cdd185b99185c9960821b6064820152608401620000a3565b50600280546001600160a01b039687166001600160a01b0319918216179091556003805495909616941693909317909355600855600691909155600755600a805461ffff19169055600d805460ff19169055620004d7565b600080546001600160a01b038381166001600160a01b0319831681178455604051919092169283917f8be0079c531659141344cd1fd0a4f28419497f9722a3daafe3b4186f6b6457e09190a35050565b80516001600160a01b03811681146200046557600080fd5b919050565b600080600080600060a086880312156200048357600080fd5b6200048e866200044d565b94506200049e602087016200044d565b6040870151606088015160809098015196999198509695945092505050565b600060208284031215620004d057600080fd5b5051919050565b6119a980620004e76000396000f3fe608060405234801561001057600080fd5b50600436106101f05760003560e01c806373b2e80e1161010f578063b4a30910116100a2578063e72f98e111610071578063e72f98e114610432578063f2fde38b1461043a578063faad0fc11461044d578063fb86a4041461045557600080fd5b8063b4a3091014610407578063b5545a3c1461040f578063c8bdbfb614610417578063d6cd82bc1461041f57600080fd5b80638c5d80dd116100de5780638c5d80dd146103d15780638da5cb5b146103e45780638e1ee99d146103f5578063906a26e0146103fe57600080fd5b806373b2e80e1461039357806373fddd16146103b657806378e97925146103bf5780637ff9b596146103c857600080fd5b80633610724e116101875780636386c1c7116101565780636386c1c71461030657806363b201171461034157806366a4559b1461034a578063715018a61461038b57600080fd5b80633610724e146102be57806342e94c90146102d157806348c54b9d146102f1578063532f1179146102f957600080fd5b80633013ce29116101c35780633013ce291461025c57806330767d09146102875780633197cbb61461029a57806331f684c0146102b157600080fd5b80630302f2ce146101f55780630e294700146101ff5780630e6cac51146102125780632b6b063314610239575b600080fd5b6101fd61045e565b005b6101fd61020d36600461178a565b610517565b600a5461022490610100900460ff1681565b60405190151581526020015b60405180910390f35b6102246102473660046117ac565b60106020526000908152604090205460ff1681565b60035461026f906001600160a01b031681565b6040516001600160a01b039091168152602001610230565b6101fd6102953660046117ea565b610655565b6102a360055481565b604051908152602001610230565b600d546102249060ff1681565b6101fd6102cc366004611807565b610670565b6102a36102df3660046117ac565b600e6020526000908152604090205481565b6101fd6108cb565b600a546102249060ff1681565b6103196103143660046117ac565b610a7a565b6040805194855260208501939093529015159183019190915215156060820152608001610230565b6102a3600b5481565b610352610af6565b6040805197885260208801969096529486019390935260608501919091526080840152151560a0830152151560c082015260e001610230565b6101fd610b49565b6102246103a13660046117ac565b600f6020526000908152604090205460ff1681565b6102a360095481565b6102a360045481565b6102a360085481565b6101fd6103df366004611807565b610b5b565b6000546001600160a01b031661026f565b6102a3600c5481565b6102a360065481565b6101fd610bc5565b6101fd610d44565b6101fd610fef565b60025461026f906001600160a01b031681565b6101fd6110c3565b6101fd6104483660046117ac565b6111fa565b6101fd611270565b6102a360075481565b61046661137c565b600d5460ff16156104dd5760405162461bcd60e51b815260206004820152603660248201527f43616e6e6f7420656e61626c6520676c6f62616c20726566756e6420616674656044820152757220746f6b656e732061726520636c61696d61626c6560501b60648201526084015b60405180910390fd5b600a805461ffff19166101011790556040517ff6d8d1ea391776e47acc6a0589088b8f9032e90b78f6fafe228506ad35e99e0490600090a1565b61051f61137c565b4282101561056f5760405162461bcd60e51b815260206004820181905260248201527f53746172742074696d65206d75737420626520696e207468652066757475726560448201526064016104d4565b8181116105c85760405162461bcd60e51b815260206004820152602160248201527f456e642074696d65206d7573742062652061667465722073746172742074696d6044820152606560f81b60648201526084016104d4565b6004541561060e5760405162461bcd60e51b8152602060048201526013602482015272125113c8185b1c9958591e481cdd185c9d1959606a1b60448201526064016104d4565b6004829055600581905560408051838152602081018390527ff32b942f17dcdc7b72249566bfc2f10364fcd97afab884eaf749198abdf98cfb910160405180910390a15050565b61065d61137c565b600a805460ff1916911515919091179055565b6106786113d6565b6004544210156106c45760405162461bcd60e51b8152602060048201526017602482015276125113c81a185cc81b9bdd081cdd185c9d1959081e595d604a1b60448201526064016104d4565b6005544211156107065760405162461bcd60e51b815260206004820152600d60248201526c125113c81a185cc8195b991959609a1b60448201526064016104d4565b600081116107565760405162461bcd60e51b815260206004820152601d60248201527f416d6f756e74206d7573742062652067726561746572207468616e203000000060448201526064016104d4565b60075481600c546107679190611836565b11156107a85760405162461bcd60e51b815260206004820152601060248201526f0457863656564732068617264206361760841b60448201526064016104d4565b6008546000906107c083670de0b6b3a764000061184f565b6107ca9190611866565b9050600081116108155760405162461bcd60e51b8152602060048201526016602482015275151bdad95b88185b5bdd5b9d081d1bdbc81cdb585b1b60521b60448201526064016104d4565b60035461082d906001600160a01b031633308561142f565b336000908152600e60205260408120805484929061084c908490611836565b9250508190555081600c60008282546108659190611836565b9250508190555080600b600082825461087e9190611836565b9091555050604080518381526020810183905233917f8fafebcaf9d154343dad25669bfa277f4fbacd7ac6b0c4fed522580e040a0f33910160405180910390a2506108c860018055565b50565b6108d36113d6565b600d5460ff166109255760405162461bcd60e51b815260206004820152601c60248201527f546f6b656e7320617265206e6f7420636c61696d61626c65207965740000000060448201526064016104d4565b336000908152600e60205260409020546109795760405162461bcd60e51b8152602060048201526015602482015274139bc818dbdb9d1c9a589d5d1a5bdb88199bdd5b99605a1b60448201526064016104d4565b336000908152600f602052604090205460ff16156109d25760405162461bcd60e51b8152602060048201526016602482015275416c726561647920636c61696d656420746f6b656e7360501b60448201526064016104d4565b336000908152600e60205260408120546008549091906109fa83670de0b6b3a764000061184f565b610a049190611866565b336000818152600f60205260409020805460ff19166001179055600254919250610a38916001600160a01b031690836114a0565b60405181815233907f896e034966eaaf1adc54acc0f257056febbd300c9e47182cf761982cf1f5e4309060200160405180910390a25050610a7860018055565b565b6001600160a01b0381166000908152600e6020526040812054600854829182918291908290610ab183670de0b6b3a764000061184f565b610abb9190611866565b6001600160a01b03979097166000908152600f6020908152604080832054601090925290912054929860ff9182169750921694509092505050565b600454600554600654600754600c54600d54600a5460009687968796879687968796879660ff918216911680610b335750600a54610100900460ff165b959d949c50929a50909850965094509092509050565b610b5161137c565b610a7860006114d5565b610b6361137c565b428111610bc05760405162461bcd60e51b815260206004820152602560248201527f526566756e6420656e642074696d65206d75737420626520696e207468652066604482015264757475726560d81b60648201526084016104d4565b600955565b610bcd61137c565b6005544211610bee5760405162461bcd60e51b81526004016104d490611888565b600654600c541015610c395760405162461bcd60e51b815260206004820152601460248201527314dbd99d0818d85c081b9bdd081c995858da195960621b60448201526064016104d4565b600a54610100900460ff1615610ca75760405162461bcd60e51b815260206004820152602d60248201527f43616e6e6f74207769746864726177207768656e20676c6f62616c207265667560448201526c1b99081a5cc8195b98589b1959609a1b60648201526084016104d4565b6003546040516370a0823160e01b81523060048201526000916001600160a01b0316906370a0823190602401602060405180830381865afa158015610cf0573d6000803e3d6000fd5b505050506040513d601f19601f82011682018060405250810190610d1491906118b7565b905080156108c8576108c8610d316000546001600160a01b031690565b6003546001600160a01b031690836114a0565b610d4c6113d6565b600a5460ff16610d9e5760405162461bcd60e51b815260206004820152601760248201527f526566756e647320617265206e6f7420656e61626c656400000000000000000060448201526064016104d4565b336000908152600e6020526040902054610df25760405162461bcd60e51b8152602060048201526015602482015274139bc818dbdb9d1c9a589d5d1a5bdb88199bdd5b99605a1b60448201526064016104d4565b336000908152600f602052604090205460ff1615610e5e5760405162461bcd60e51b815260206004820152602360248201527f43616e6e6f7420726566756e6420616674657220636c61696d696e6720746f6b604482015262656e7360e81b60648201526084016104d4565b3360009081526010602052604090205460ff1615610eb15760405162461bcd60e51b815260206004820152601060248201526f105b1c9958591e481c99599d5b99195960821b60448201526064016104d4565b600a54610100900460ff16610f7157600954421115610f125760405162461bcd60e51b815260206004820152601760248201527f526566756e6420706572696f642068617320656e64656400000000000000000060448201526064016104d4565b600654600c541080610f25575060055442115b610f715760405162461bcd60e51b815260206004820152601860248201527f526566756e6420636f6e646974696f6e206e6f74206d6574000000000000000060448201526064016104d4565b336000818152600e60209081526040808320546010909252909120805460ff191660011790556003549091610fb0916001600160a01b031690836114a0565b60405181815233907fa171b6942063c6f2800ce40a780edce37baa2b618571b11eedd1e69e626e7d769060200160405180910390a250610a7860018055565b610ff761137c565b60055442116110185760405162461bcd60e51b81526004016104d490611888565b600b546002546040516370a0823160e01b8152306004820152600092916001600160a01b0316906370a0823190602401602060405180830381865afa158015611065573d6000803e3d6000fd5b505050506040513d601f19601f8201168201806040525081019061108991906118b7565b61109391906118d0565b905080156108c8576108c86110b06000546001600160a01b031690565b6002546001600160a01b031690836114a0565b6110cb61137c565b6005544210156110ed5760405162461bcd60e51b81526004016104d490611888565b600654600c5410156111385760405162461bcd60e51b815260206004820152601460248201527314dbd99d0818d85c081b9bdd081c995858da195960621b60448201526064016104d4565b600a54610100900460ff16156111b65760405162461bcd60e51b815260206004820152603860248201527f43616e6e6f7420656e61626c6520746f6b656e20636c61696d73207768656e2060448201527f676c6f62616c20726566756e6420697320656e61626c6564000000000000000060648201526084016104d4565b600d805460ff19908116600117909155600a805490911690556040517f923de0a3621b0edd895d821eb5b692ccf447b9d07b758dd0c535e1d2951f741a90600090a1565b61120261137c565b6001600160a01b0381166112675760405162461bcd60e51b815260206004820152602660248201527f4f776e61626c653a206e6577206f776e657220697320746865207a65726f206160448201526564647265737360d01b60648201526084016104d4565b6108c8816114d5565b61127861137c565b6000600454116112bc5760405162461bcd60e51b815260206004820152600f60248201526e125113c81b9bdd081cdd185c9d1959608a1b60448201526064016104d4565b6004544210156113085760405162461bcd60e51b8152602060048201526017602482015276125113c81a185cc81b9bdd081cdd185c9d1959081e595d604a1b60448201526064016104d4565b600554421061134d5760405162461bcd60e51b8152602060048201526011602482015270125113c8185b1c9958591e48195b991959607a1b60448201526064016104d4565b426005556040517f2ef24e13d793db1255118d8f26411f631efea7fc2debf72122c1a943835a7dcd90600090a1565b6000546001600160a01b03163314610a785760405162461bcd60e51b815260206004820181905260248201527f4f776e61626c653a2063616c6c6572206973206e6f7420746865206f776e657260448201526064016104d4565b6002600154036114285760405162461bcd60e51b815260206004820152601f60248201527f5265656e7472616e637947756172643a207265656e7472616e742063616c6c0060448201526064016104d4565b6002600155565b6040516001600160a01b038085166024830152831660448201526064810182905261149a9085906323b872dd60e01b906084015b60408051601f198184030181529190526020810180516001600160e01b03166001600160e01b031990931692909217909152611525565b50505050565b6040516001600160a01b0383166024820152604481018290526114d090849063a9059cbb60e01b90606401611463565b505050565b600080546001600160a01b038381166001600160a01b0319831681178455604051919092169283917f8be0079c531659141344cd1fd0a4f28419497f9722a3daafe3b4186f6b6457e09190a35050565b600061157a826040518060400160405280602081526020017f5361666545524332303a206c6f772d6c6576656c2063616c6c206661696c6564815250856001600160a01b03166115fa9092919063ffffffff16565b905080516000148061159b57508080602001905181019061159b91906118e3565b6114d05760405162461bcd60e51b815260206004820152602a60248201527f5361666545524332303a204552433230206f7065726174696f6e20646964206e6044820152691bdd081cdd58d8d9595960b21b60648201526084016104d4565b60606116098484600085611611565b949350505050565b6060824710156116725760405162461bcd60e51b815260206004820152602660248201527f416464726573733a20696e73756666696369656e742062616c616e636520666f6044820152651c8818d85b1b60d21b60648201526084016104d4565b600080866001600160a01b0316858760405161168e9190611924565b60006040518083038185875af1925050503d80600081146116cb576040519150601f19603f3d011682016040523d82523d6000602084013e6116d0565b606091505b50915091506116e1878383876116ec565b979650505050505050565b6060831561175b578251600003611754576001600160a01b0385163b6117545760405162461bcd60e51b815260206004820152601d60248201527f416464726573733a2063616c6c20746f206e6f6e2d636f6e747261637400000060448201526064016104d4565b5081611609565b61160983838151156117705781518083602001fd5b8060405162461bcd60e51b81526004016104d49190611940565b6000806040838503121561179d57600080fd5b50508035926020909101359150565b6000602082840312156117be57600080fd5b81356001600160a01b03811681146117d557600080fd5b9392505050565b80151581146108c857600080fd5b6000602082840312156117fc57600080fd5b81356117d5816117dc565b60006020828403121561181957600080fd5b5035919050565b634e487b7160e01b600052601160045260246000fd5b8082018082111561184957611849611820565b92915050565b808202811582820484141761184957611849611820565b60008261188357634e487b7160e01b600052601260045260246000fd5b500490565b602080825260159082015274125113c81a185cc81b9bdd08195b991959081e595d605a1b604082015260600190565b6000602082840312156118c957600080fd5b5051919050565b8181038181111561184957611849611820565b6000602082840312156118f557600080fd5b81516117d5816117dc565b60005b8381101561191b578181015183820152602001611903565b50506000910152565b60008251611936818460208701611900565b9190910192915050565b602081526000825180602084015261195f816040850160208701611900565b601f01601f1916919091016040019291505056fea2646970667358221220efc51d0d64b668a1951dc2ae771f3959fd8f95e80c0cddb7eadc218de13f8fa364736f6c63430008140033",
  "linkReferences": {},
  "deployedLinkReferences": {}
}